S01200006164634578616D706C652E737265631E
S11300000C94A7000C94C4000C94C4000C94C40079
S11300100C94C4000C94C4000C94C4000C94C4004C
S11300200C94C4000C94C4000C94C4000C94C4003C
S11300300C94C4000C94C4000C94C4000C94C4002C
S11300400C94C4000C94C4000C94C4000C94C4001C
S11300500C94C4000C945E010C94C4000C94C40071
S11300600C94C4000C94C400D801DA01DC01DE0154
S1130070E001E201E401730375037503750375037D
S113008073037303750375037303750375037303B4
S11300907503750375037303750393039303930344
S11300A09303950393039303930398039303930395
S11300B09B03930393039303930393039303B60361
S11300C0B603B603B603B803B603B603B603BB035D
S11300D0B603B603BE03B603B603B603B603B6034C
S11300E0B6030C0411041104110423040C040C04BD
S11300F0110423040C04110423040C04110411043A
S113010011040C041104D904EB04EB04EB04FD0406
S1130110EB04D904EB04FD04D904EB04FD04D90475
S1130120EB04EB04EB04D904EB04EE06EE06DE0666
S1130130E006E006E206E206E206E206E406E4067B
S1130140E406E606E606E806EA06EC06EC061124F2
S11301501FBECFEFD8E0DEBFCDBF11E0A0E0B1E01D
S1130160EEE1F4E102C005900D92AC32B107D9F78B
S113017021E0ACE2B1E001C01D92A733B207E1F780
S11301800E94C6000C940D0A0C940000CF93DF93D8
S1130190CDB7DEB76A970FB6F894DEBF0FBECDBFFA
S11301A0FE0131968DE0DF011D928A95E9F78B857A
S11301B080618B878DE0DE011E9601900D928A95F9
S11301C0E1F710922E018AB183608AB98BB18C7FDA
S11301D08BB905E024E045E250E064E270E0CE0132
S11301E00E960E94260220E045E250E064E270E0B0
S11301F0CE010E960E94160240E068E0CE010E96F3
S11302000E94BC04CE010E960E9440028EE091E052
S11302100E943107BFEFE7EAF1E6B150E040F04059
S1130220E1F700C00000CE010E960E94300347E0C3
S113023061E086E00E94AB0180E00E94F20180E070
S11302400E94FA010E9401020E9408020E940F0209
S113025063E08CE00E94790188EA91E60E94A201A1
S113026088EA91E60E9499010E94960178940F2EE3
S1130270F8E7EF2EF12CF02D00E211E080912E0131
S113028080FFFCCFD7018D919C919F938F931F93F7
S11302900F930E941D07BFEFE1EEF4E0B150E04080
S11302A0F040E1F700C0000080912E018E7F809322
S11302B02E010F900F900F900F90E0CF1F920F928E
S11302C00FB60F9211248F939F9380917800909191
S11302D079009093300180932F0180912E018160E9
S11302E080932E019F918F910F900FBE0F901F90BE
S11302F0189520918000909181006F3F11F0987FB4
S1130300962B8F3F69F083FF02C0906101C09F7EEE
S113031082FF02C0986001C0977F83702C7F282BD6
S1130320209380009093810080E00895B29A80E049
S113033008952FB7F89490938B0080938A002FBF71
S113034080E008952FB7F8949093870080938600F7
S11303502FBF80E008956F3F51F0ECE7F0E090810B
S113036020E4629FB00111249F73692B60834F3F87
S113037031F0EAE7F0E09081987F492B40838F3F8A
S113038069F1811107C0EAE7F0E080818F7D808305
S113039080E0089590917B00292F287F90E0FC0154
S11303A03297E730F105E0F4EC5CFF4F0C9417074B
S11303B021600BC0226009C0236007C0246005C00F
S11303C0256003C0266001C0276020937B00EAE714
S11303D0F0E080818062808380E0089580E0089569
S11303E087E00895ECE7F0E09081907F892B80838B
S11303F080E00895EEE7F0E09081892B808380E02F
S11304000895EAE7F0E080818068808380E00895C1
S1130410EAE7F0E080818860808380E00895EAE77D
S1130420F0E080818064808380E00895FC01718322
S1130430608353834283822F87702481287F282BF3
S1130440248384858260848780E008950F93FC016F
S113045076836583508747832770220F220F220FEC
S11304608185877C282B2187802F87700185087FD1
S1130470082B018784858460848780E00F91089528
S1130480FC01248523FF14C020E031E030933601C1
S1130490209335013093340120933301309332019A
S11304A02093310190932D0180932C0180E00895D5
S11304B087E00895CF93DF93FC01A781B0854C9129
S11304C02185277081E090E0EC0102C0CC0FDD1F94
S11304D02A95E2F79E01209524232C93A781B085C9
S11304E04C9121852695269526952770EC0102C00E
S11304F0CC0FDD1F2A95E2F79E01209524232C932F
S1130500A281B3817C91248127704FE050E0EA01FD
S113051002C0CC0FDD1F2A95E2F79E012095272308
S11305202C93A281B3813C9144814770262F22955C
S11305302F7001C0220F4A95EAF7232B2C93A78131
S1130540B0853C912185269526952695277002C075
S1130550880F991F2A95E2F7832B8C93D5E0DA95BF
S1130560F1F70000A781B0854C9181858695869529
S11305708695877021E030E0E90102C0CC0FDD1FD1
S11305808A95E2F7CE01809584238C93D5E0DA95A1
S1130590F1F70000A281B3814C91848187702FE030
S11305A030E0E90102C0CC0FDD1F8A95E2F7CE01ED
S11305B0809584238C93A281B3819C91248127709C
S11305C0862F8F7001C0880F2A95EAF7892B8C93A8
S11305D0A781B0854C91918596959695969597703F
S11305E021E030E0E90102C0CC0FDD1F9A95E2F76B
S11305F0CE01842B8C93D5E0DA95F1F70000A78126
S1130600B0854C9181858695869586958770E9019C
S113061002C0CC0FDD1F8A95E2F7CE0180958423BA
S11306208C93D5E0DA95F1F700006150623080F4E4
S11306308FE39FE10197F1F700C0000083858F7776
S1130640838784858E7F848783858178838704C0AC
S113065095ED9A95F1F7000080E0DF91CF91089530
S1130660FC01248523FF04C061E00E945A0208951E
S113067087E00895DC011C968C911C9783FFA5C02C
S11306806130B1F419969C91199792959695969527
S113069093701A968C911A978770880F880F892BFC
S11306A090E00197429708F092C09FEF940F68C0C2
S11306B06230F1F419969C911997929596959695B6
S11306C093701A968C911A978770880F880F892BCC
S11306D090E001978231910508F07BC0855C9F4FC3
S11306E0FC010C94170784E008959FE3940F48C01D
S11306F0633021F519969C91199792959695969544
S113070093701A968C911A978770880F880F892B8B
S113071090E001978231910508F05DC0835B9F4FA3
S1130720FC010C94170784E008959BE0940F28C003
S11307309FE0940F25C093E1940F22C019969C91D9
S1130740199792959695969593701A968C911A97F7
S11307508770880F880F892B90E00197823191056B
S1130760E0F5815A9F4FFC010C94170784E008952B
S11307709BE4940F05C09FE4940F02C093E5940F8B
S1130780615063701B968C911B9760FB87F91B96D5
S11307908C931B9766951C968C911C978E7F862B49
S11307A01C968C931C978FEF840F8F73880F1B9666
S11307B04C911B974178482B1B964C931B97692FA0
S11307C06068CD010E945A02089587E0089583E08D
S11307D0089583E0089583E0089583E00895DC019B
S11307E01C962C911C9723FF50C019962C91199795
S11307F022952695269523701A96EC91E770EE0FB4
S1130800EE0FE22BF0E03197E231F10508F03FC042
S1130810EF58FF4F0C94170741E061E00E943A0340
S11308200895FC013385331F3327331F248521703A
S1130830220F232B61E0213009F460E06F5F41E077
S11308400E943A030895DC011B963C911B97331FC9
S11308503327331F1C962C911C972170220F232BB6
S1130860233069F01B962C911B97221F2227221FED
S11308701C966C916170660F622B6F5F01C060E023
S11308806F5F41E00E943A03089587E0089583E092
S11308900895CF93DF93FC01A781B0854C91218506
S11308A0277081E090E0EC0102C0CC0FDD1F2A9597
S11308B0E2F79E01209524232C93A781B0854C91C7
S11308C021852695269526952770EC0102C0CC0F2C
S11308D0DD1F2A95E2F79E01209524232C93A28103
S11308E0B3817C91248127704FE050E0EA0102C07B
S11308F0CC0FDD1F2A95E2F79E01209527232C9328
S1130900A281B3812C913481377062956F7001C0DC
S1130910660F3A95EAF7622B6C93A781B0853C91F8
S11309202185269526952695277002C0880F991F44
S11309302A95E2F7832B8C93D5E0DA95F1F7000042
S1130940A781B0854C91818586958695869587701B
S113095021E030E0B90102C0660F771F8A95E2F703
S1130960CB01809584238C9375ED7A95F1F7000083
S113097080E0DF91CF9108951F93CF93DF93EC0133
S1130980862F442319F0413029F011C19A85977FAD
S11309909A8703C09A8598609A87482F50E0FA0195
S11309A03197E231F10508F004C1ED57FF4F0C9483
S11309B01707982F9F718295880F880F807C29854F
S11309C02F73822B8987969596958A85887F892BA4
S11309D08A8711E023C0982F9F718295880F880F12
S11309E0807C29852F73822B8987969596958A8595
S11309F0887F892B8A8712E011C0982F9F71829576
S1130A00880F880F807C29852F73822B8987969580
S1130A1096958A85887F892B8A8714E08C8581FF47
S1130A20CAC08C8582FFC9C0EA81FB8140812C81C8
S1130A3027708FE090E0BC0102C0660F771F2A95F3
S1130A40E2F79B01209524232083E881F98120810A
S1130A503C81377002C0880F991F3A95E2F7822BC8
S1130A608083EF81F88540812985269526952695F2
S1130A70277081E090E0BC0102C0660F771F2A95C1
S1130A80E2F79B01209524232083ED81FE814081A0
S1130A9039853695369536953770BC0102C0660F98
S1130AA0771F3A95E2F79B01242B2083EF81F88589
S1130AB0408129852770BC0102C0660F771F2A95E3
S1130AC0E2F79B01209524232083ED81FE81208180
S1130AD03985377002C0880F991F3A95E2F7822B47
S1130AE080838FE59AEE0197F1F700C0000060E380
S1130AF0CE010E9449048FE19EE40197F1F700C002
S1130B00000060E3CE010E9449048FEE90E001975B
S1130B10F1F700C0000060E3CE010E9449048FEEAB
S1130B2090E00197F1F700C0000060E2CE010E945E
S1130B3049048A858A8583FD02C060E201C064E2BB
S1130B40123011F0143009F46860CE010E945A0288
S1130B5068E0CE010E945A0261E0CE010E945A026E
S1130B608A8584FF02C066E001C064E08A8585FD51
S1130B706160CE010E945A026CE0CE010E945A02CA
S1130B808C8588608C878A8580648A878A858F773C
S1130B908A878B858E7F8B878B858F778B878C85D8
S1130BA08E7F8C878B8581788B8780E007C081E07E
S1130BB005C083E003C085E001C086E0DF91CF91EA
S1130BC01F910895CF93DF93FC01848583FFC8C0F0
S1130BD0838586958F7390E088970CF0C3C0A781B6
S1130BE0B0854C912185277081E090E0EC0102C032
S1130BF0CC0FDD1F2A95E2F79E01242B2C93A781AD
S1130C00B0854C9121852695269526952770EC0173
S1130C1002C0CC0FDD1F2A95E2F79E012095242304
S1130C202C93A281B3817C91248127704FE050E002
S1130C30EA0102C0CC0FDD1F2A95E2F79E01209540
S1130C4027232C93A281B3813C9144814770262FA2
S1130C5022952F7001C0220F4A95EAF7232B2C937B
S1130C60A781B0853C9121852695269526952770E8
S1130C7002C0880F991F2A95E2F7832B8C93D5E045
S1130C80DA95F1F70000A781B0854C9181858695AE
S1130C9086958695877021E030E0E90102C0CC0F8B
S1130CA0DD1F8A95E2F7CE01809584238C93D5E0ED
S1130CB0DA95F1F70000A281B3814C9184818770A9
S1130CC02FE030E0E90102C0CC0FDD1F8A95E2F786
S1130CD0CE01809584238C93A281B3818C919481DD
S1130CE097706F7001C0660F9A95EAF7682B6C9342
S1130CF0A781B0854C919185969596959695977018
S1130D0021E030E0B90102C0660F771F9A95E2F73F
S1130D10CB01842B8C9375E07A95F1F70000A781C1
S1130D20B0854C9181858695869586958770E90175
S1130D3002C0CC0FDD1F8A95E2F7CE018095842393
S1130D408C93D5EDDA95F1F70000938596959F5F26
S1130D509F73990F83858178892B838780E003C0F3
S1130D6087E001C080E0DF91CF9108950F931F9336
S1130D70CF93DF93A0912C01B0912D011C969C91EF
S1130D801C9793FF4DC019969C911997929596952F
S1130D90969593701A962C911A972770220F220F0A
S1130DA0292B30E0215031092231310528F42B560A
S1130DB03F4FF9010C94170710E011C01AE00FC05F
S1130DC01CE00DC010E10BC014E109C018E107C01C
S1130DD01EE105C010E203C018E201C018E08A3029
S1130DE0D9F41B960C9106950F73011770F4C0E0AB
S1130DF0D0E060E280912C0190912D010E94E205E7
S1130E0021968C2F800F8117A0F380912C01909153
S1130E102D010E94EF0304C0682FCD010E94E2055A
S1130E2080E090E0DF91CF911F910F910895EE0F34
S1130E30FF1F0590F491E02D0994A0E0B0E0E3E2F7
S1130E40F7E00C94E609FE01359661917191AF01CA
S1130E5080913301909134010E945E07E2E00C948A
S1130E60020A0F931F93CF93DF93E0913301F09124
S1130E703401238121FF1BC0EC0100E010E08991C3
S1130E806091330170913401DB011896ED91FC916E
S1130E901997882331F00995892B89F30FEF1FEFF8
S1130EA0EECF8AE00995892B11F4C80102C08FEFB7
S1130EB09FEFDF91CF911F910F910895ACE0B0E0C7
S1130EC0E4E6F7E00C94D6097C016B018A01FC018D
S1130ED017821682838181FFBDC1CE0101964C0128
S1130EE0F7019381F60193FD859193FF81916F0141
S1130EF0882309F4ABC1853239F493FD859193FFBE
S1130F0081916F01853229F4B70190E00E9446096E
S1130F10E7CF512C312C20E02032A0F48B3269F041
S1130F2030F4803259F0833269F420612CC08D3260
S1130F3039F0803339F4216026C02260246023C054
S1130F40286021C027FD27C030ED380F3A3078F4EF
S1130F5026FF06C0FAE05F9E300D1124532E13C005
S1130F608AE0389E300D1124332E20620CC08E325C
S1130F7021F426FD6BC1206406C08C3611F4206870
S1130F8002C0883641F4F60193FD859193FF819167
S1130F906F018111C1CF982F9F7D9554933028F410
S1130FA00C5F1F4FFFE3F9830DC0833631F08337A5
S1130FB071F0833509F05BC022C0F8018081898318
S1130FC00E5F1F4F44244394512C540115C0380123
S1130FD0F2E06F0E711CF801A080B18026FF03C0FF
S1130FE0652D70E002C06FEF7FEFC5012C870E9472
S1130FF03B092C0183012C852F77222E17C0380141
S1131000F2E06F0E711CF801A080B18026FF03C0CE
S1131010652D70E002C06FEF7FEFC5012C870E9441
S113102030092C012C852068222E830123FC1BC04F
S1131030832D90E048165906B0F4B70180E290E0A1
S11310400E9446093A94F4CFF50127FC859127FEC6
S113105081915F01B70190E00E94460931103A94F2
S1131060F1E04F1A51084114510471F7E5C0843678
S113107011F0893639F5F80127FF07C060817181C5
S1131080828193810C5F1F4F08C060817181882722
S113109077FD8095982F0E5F1F4F2F76B22E97FF06
S11310A009C090958095709561957F4F8F4F9F4FA4
S11310B02068B22E2AE030E0A4010E947809A82E0C
S11310C0A81844C0853729F42F7EB22E2AE030E0D8
S11310D025C0F22FF97FBF2E8F36C1F018F4883562
S11310E079F0B4C0803719F0883721F0AFC02F2FC2
S11310F02061B22EB4FE0DC08B2D8460B82E09C0C1
S113110024FF0AC09F2F9660B92E06C028E030E065
S113111005C020E130E002C020E132E0F801B7FE72
S113112007C060817181828193810C5F1F4F06C06B
S11311306081718180E090E00E5F1F4FA4010E94E6
S11311407809A82EA818FB2DFF77BF2EB6FE0BC07A
S11311502B2D2E7FA51450F4B4FE0AC0B2FC08C097
S11311602B2D2E7E05C07A2C2B2D03C07A2C01C08A
S1131170752C24FF0DC0FE01EA0DF11D8081803322
S113118011F4297E09C022FF06C07394739404C02D
S1131190822F867809F0739423FD13C020FF06C0C4
S11311A05A2C731418F4530C5718732C731468F4D2
S11311B0B70180E290E02C870E94460973942C8545
S11311C0F5CF731410F4371801C0312C24FF12C06A
S11311D0B70180E390E02C870E9446092C8522FF0A
S11311E017C021FF03C088E590E002C088E790E0C3
S11311F0B7010CC0822F867859F021FD02C080E22D
S113120001C08BE227FD8DE2B70190E00E94460900
S1131210A51438F4B70180E390E00E9446095A947B
S1131220F7CFAA94F401EA0DF11D8081B70190E093
S11312300E944609A110F5CF332009F451CEB7011D
S113124080E290E00E9446093A94F6CFF701868145
S1131250978102C08FEF9FEF2C96E2E10C94F20984
S1131260FC010590615070400110D8F7809590956D
S11312708E0F9F1F0895FC01615070400190011072
S1131280D8F7809590958E0F9F1F08950F931F9305
S1131290CF93DF93182F092FEB018B8181FD03C0BE
S11312A08FEF9FEF20C082FF10C04E815F812C81A1
S11312B03D81421753077CF4E881F9819F012F5F38
S11312C03F4F39832883108306C0E885F985812F31
S11312D00995892B29F72E813F812F5F3F4F3F834B
S11312E02E83812F902FDF91CF911F910F9108951D
S11312F0FA01AA27283051F1203181F1E8946F9343
S11313006E7F6E5F7F4F8F4F9F4FAF4FB1E03ED0E8
S1131310B4E03CD0670F781F891F9A1FA11D680F86
S1131320791F8A1F911DA11D6A0F711D811D911DB9
S1131330A11D20D009F468943F912AE0269F11242E
S11313403019305D3193DEF6CF010895462F477092
S1131350405D4193B3E00FD0C9F7F6CF462F4F70ED
S1131360405D4A3318F0495D31FD4052419302D04B
S1131370A9F7EACFB4E0A6959795879577956795F1
S1131380BA95C9F700976105710508959B01AC01F1
S11313900A2E06945795479537952795BA95C9F718
S11313A0620F731F841F951FA01D08952F923F92F3
S11313B04F925F926F927F928F929F92AF92BF9261
S11313C0CF92DF92EF92FF920F931F93CF93DF930D
S11313D0CDB7DEB7CA1BDB0B0FB6F894DEBF0FBE6A
S11313E0CDBF09942A88398848885F846E847D84B7
S11313F08C849B84AA84B984C884DF80EE80FD80B9
S11314000C811B81AA81B981CE0FD11D0FB6F8942E
S1111410DEBF0FBECDBFED010895F894FFCFEF
S113141E0000000200000000B60600000000616437
S113142E634578616D706C65207620312E300A002C
S10F143E414443203D2025640A0A0000BC
S9030000FC
