S01200005254432053657269616C2E73726563A9
S11300000C9485000C944C050C94A2000C94A20052
S11300100C94A2000C94A2000C94A2000C94A200D4
S11300200C94A2000C94A2000C94A2000C94A200C4
S11300300C94A2000C94A2000C94A2000C94A200B4
S11300400C94A2000C94A2000C94A2000C94A200A4
S11300500C94A2000C94A2000C94A2000C94A20094
S11300600C9458060C94A2007306C506C506C50672
S1130070C506C506C506C5067306C506C506C50676
S1130080C506C506C506C5067506C506C506C50664
S1130090C506C506C506C506C506C506C506C50604
S11300A0C506C506C506C5067506C506C506C50644
S11300B0C506C506C506C506C506C506C506C506E4
S11300C0C506C506C506C506C106C506C506C506D8
S11300D0C506C506C506C5069E06C506C506C506EB
S11300E0C506C506C506C506C506C506C506C506B4
S11300F0C506C506C506C5069206C506C506C506D7
S1130100C506C506C506C506B00611241FBECFEF39
S1130110D8E0DEBFCDBF11E0A0E0B1E0E8E1F4E15A
S113012002C005900D92AE31B107D9F721E0AEE1DE
S1130130B1E001C01D92A233B207E1F70E94F304BB
S11301400C940A0A0C940000E0ECF0E0808188230F
S1130150ECF78091C60090E00895823089F028F48D
S1130160882341F0813049F02BC0833061F08F3F08
S113017061F026C05A98529A08C05A9A529A05C0F9
S11301805A98529802C05A9A52986F3FD9F0809167
S113019069008C7F623069F028F4662369F061306D
S11301A031F012C0633039F06F3F31F00DC081601F
S11301B003C0826001C083608093690080E0089579
S11301C081E0089580E0089582E00895E89A089512
S11301D08F929F92AF92BF92CF92DF92EF92FF9253
S11301E00F934A015B019091C0009091C1009091DE
S11301F0C2009FEFE91621F091E09E1508F47DC03E
S11302000F3F19F0033008F07AC02F3F19F0253062
S113021008F077C08F3F89F48091C200829586955B
S11302208695837021F0833009F46FC005C08091F6
S1130230C0008695817001C080E09FEF8916990601
S1130240A906B90609F45FC08130B9F018F084300A
S113025039F139C060E472E48FE090E0A5019401C3
S11302600E94ED06DA01C9010197A109B1094C0107
S11302705D01C12CD12C76012EC060E874E88EE1BA
S113028090E0A50194010E94ED06DA01C9010197ED
S1130290A109B1094C015D01C12CD12C76011BC00F
S11302A060E072E18AE790E0A50194010E94ED0606
S11302B0DA01C9010197A109B1094C015D01C12C01
S11302C0D12C760108C0812C912CA12CB12CC12CED
S11302D0D12CE12CF12C282D392D4A2D5B2D6C2DA0
S11302E07D2D8E2D9F2D08E00E9417072F702093DF
S11302F0C5008092C40080E00FC087E00DC085E097
S11303000BC085E009C080E007C08FEF881698060F
S1130310A806B80629F680E00F91FF90EF90DF90D1
S1130320CF90BF90AF909F908F900895E1ECF0E054
S113033080818061808380E00895E1ECF0E0808139
S11303408860808380E00895E1ECF0E0808180683B
S1130350808380E0089580E091E090933101809360
S1130360300190932F0180932E0190932D0180935F
S11303702C0180E008958091C00085FB882780F9D6
S11303800895CF93C82F0E94BB018823E1F3C09343
S1130390C60080E0CF910895AF92BF92CF92DF92D2
S11303A0EF92FF920F931F93CF93DF9300D01F928E
S11303B0CDB7DEB75C016B017A018901198221E0B6
S11303C0AE014F5F5F4F60E088E60E94130623E0B2
S11303D0AE014F5F5F4F61E088E60E94130663E061
S11303E0CE0101960E94EE058981282F221F222723
S11303F0221FE3E1F1E0908120FB91F99083982F93
S11304009695969596959E70292F220F220F920FFE
S11304108F70890FEFE0F1E0208180FB27F986954A
S11304208F71A0E1B1E09C91907E892B8C938A819D
S1130430982F92959F70990F392F330F330F930F85
S11304408F70980F9F73990F822F8178892B8083E7
S11304508B8186FF21C0E3E1F1E090819460908379
S1130460282F229526952770EFE0F1E0908120FB5C
S113047090F9908384FB992790F9990F292F220FE3
S1130480220F920F8F70980FEEE0F1E09F71808140
S1130490807E892B808317C0E3E1F1E090819B7F0C
S11304A09083982F9073969596959695292F220F61
S11304B0220F920F8F70980FEEE0F1E09F71808110
S11304C0807E892B808380910E018F71D5018C935E
S11304D0EFE0F1E0808186958F73D6018C93908153
S11304E0991F9927991F809110018F71880F892B6B
S11304F0F70180838091130182FD04C082E0D8015A
S11305008C9305C080910F018170F801808380E095
S11305100F900F900F90DF91CF911F910F91FF904B
S1130520EF90DF90CF90BF90AF900895CF93DF937B
S1130530CDB7DEB728970FB6F894DEBF0FBECDBF98
S1130540198221E0AE014F5F5F4F60E088E60E94B0
S1130550130628E0AE014F5F5F4F61E088E60E941A
S1130560130668E0CE0101960E94EE058981282FCA
S1130570221F2227221FE3E1F1E0908120FB91F961
S11305809083982F9695969596959E70292F220F75
S1130590220F920F8F70890FEFE0F1E0208180FB32
S11305A027F986958F71A0E1B1E09C91907E892B0B
S11305B08C938A81982F92959F70990F392F330FBE
S11305C0330F930F8F70980F9F73990F822F817839
S11305D0892B80838B8186FF21C0E3E1F1E0908148
S11305E094609083282F229526952770EFE0F1E000
S11305F0908120FB90F9908384FB992790F9990FBF
S1130600292F220F220F920F8F70980FEEE0F1E046
S11306109F718081807E892B808317C0E3E1F1E0A4
S113062090819B7F9083982F90739695969596953D
S1130630292F220F220F920F8F70980FEEE0F1E016
S11306409F718081807E892B8083EEE0F1E09C8124
S11306509295990F907E80818F71892B80838D81F3
S1130660982F92959F70990F392F330F330F390FAD
S11306708F70380FE2E1F1E03F719081907E8E81BE
S1130680282F22952F70220F522F550F550F250F0B
S1130690582F520F2F81822F82958F70880F482FE9
S11306A0440F440F840F2F70820FA0E1B1E0482F54
S11306B04295440F407E2C912F71242B2C938695C8
S11306C086958695482F4F70852F8295807F842B41
S11306D0809311018885282F221F2227221F932B04
S11306E020FB96F9282F22952F7020FB95F980FB8B
S11306F097F9908381FB992790F9E3E1F1E08081F8
S11307008E7F892B808380E028960FB6F894DEBF15
S11307100FBECDBFDF91CF9108959F92AF92BF924C
S1130720CF92DF92EF92FF920F931F93CF93DF93B9
S113073000D0CDB7DEB7982EC62ED42E0E949602D6
S11307408FEF981631F0E3E1F1E0808190FA81F9BE
S11307508083E2E0CE16F9F0EC1530F0CC2069F09D
S1130760F1E0CF1689F044C084E0C81659F1C816E8
S1130770F0F0E5E0CE1691F13BC0E2E1F1E08081DA
S11307808F7D8F7B808334C0E2E1F1E080818F7DB7
S1130790806480832DC0E2E1F1E0808180628F7704
S11307A08083E3E1F1E080818E7F808321C0E2E1F8
S11307B0F1E08081806A8083E3E1F1E080818E7FD3
S11307C0808316C0E2E1F1E0808180628F778083CC
S11307D0E3E1F1E08081816080830AC0E2E1F1E03D
S11307E08081806A8083E3E1F1E08081816080839D
S11307F0FFEFDF1609F45BC08091130182FB8827A9
S113080080F98D1509F453C0E3E1F1E08081D0FA59
S113081082F98083D11021C080910F0180FD0CC02A
S113082080910E018F718C3009F041C0EEE0F1E04F
S11308308081807E80833BC0EEE0F1E090818CE09B
S1130840890F8F71907E892B80838F71883179F520
S11308508081807E8C6080832AC020910E012F715C
S1130860822F90E00C97A4F0EFE0F1E080818160AA
S113087080832C50EEE0F1E02F718081807E282B64
S113088020832F71A1F48081807E8C6080830FC0CF
S1130890EFE0F1E080818E7F808380910E018F7183
S11308A031F4EEE0F1E08081807E8C6080831982F7
S11308B090910F01991F9927991F809110018F71B1
S11308C0880F892B90E00F2EF3E1CF2EF1E0DF2E7D
S11308D0F02DF601208121FB002700F910E098019A
S11308E03695322F2227379527950AE010E0B80174
S11308F00E94D906282B62957295707F7627607FB7
S11309007627622B6A8322E0AE014F5F5F4F60E07F
S113091088E60E94130682E0898380910E018F711C
S113092090E0B8010E94D90662957295707F76278F
S1130930607F7627682B6A83F601808182FF13C06B
S1130940606480910F0180FBAA24A0F8B12CAA0C4A
S1130950BB1CAA0CBB1CAA0CBB1CAA0CBB1CAA0C5F
S1130960BB1CA62AAA8222E0AE014F5F5F4F60E063
S113097088E60E94130687E089838091120185FB33
S1130980EE24E0F8F12CEE0CFF1CEE0CFF1CEE0C38
S1130990FF1CEE0CFF1C86FB992790F9979599276D
S11309A09795E92A881F8827881F909113019170D1
S11309B0990F892BE82AEA8222E0AE014F5F5F4F4C
S11309C060E088E60E94130680E00F900F90DF91AC
S11309D0CF911F910F91FF90EF90DF90CF90BF9038
S11309E0AF909F900895CF93DF9300D000D0CDB700
S11309F0DEB782E0898388E08A838EE28B83E12CF0
S1130A0000E023E040E855E260E070E080E00E940E
S1130A10E8000E949D010E9496010E94A4010E9488
S1130A20AB0160EA76E881E090E00E945D0562E057
S1130A3083E00E94AD000E94E600789440E062E00A
S1130A4080E00E948D0305E111E080912B0180FF7D
S1130A50FCCF80912B018E7F80932B019E012C5F14
S1130A603F4FAE014F5F5F4FBE016D5F7F4FCE01C1
S1130A7002960E94CC0189811F928F938B811F92D1
S1130A808F931F930F930E9447070F900F900F901F
S1130A900F900F900F90D9CF1F920F920FB60F9215
S1130AA011248F9380912B01816080932B018F916E
S1130AB00F900FBE0F901F9018959B01AC01213829
S1130AC06AE1360766E04607510508F07FC060E03A
S1130AD074E284EF90E00E94ED06DA01C9012F3040
S1130AE062E036074105510588F44097A109B10930
S1130AF0B695A79597958795282FE9EBF0E0808127
S1130B008D7F808380818E7F808356C0293068E00A
S1130B10360741055105B8F4DA01C9014097A10926
S1130B20B109689412F8B695A79597958795169488
S1130B30D1F7282FE9EBF0E080818D7F80838081DD
S1130B408160808339C0213F6FE13607410551053B
S1130B50B8F4DA01C9014097A109B109689414F8FD
S1130B60B695A795979587951694D1F7282FE9EB15
S1130B70F0E080818260808380818E7F80831CC0CE
S1130B8021396FE736074105510510F5DA01C9012E
S1130B904097A109B109689416F8B695A795979559
S1130BA087951694D1F7282FE9EBF0E080818260D5
S1130BB080838081816080832093B8008FEF80934D
S1130BC0BB0084E08093BC0080E0089581E0089538
S1130BD081E008958091BC00817008951F93CF93A4
S1130BE0DF93182FD92FC62F0E94EA058111FCCF5D
S1130BF020911F0120FF0EC0CC2371F022E231E0CE
S1130C00A12FBD2FF90181918D938E2F821B8C17FB
S1130C10D0F304C080E003C081E001C081E0DF9133
S1130C20CF911F910895FF920F931F93CF93DF935A
S1130C30082FD62F142FF52EC22F0E94EA058111FA
S1130C40FCCF000F0D2B0093210181E08C0F8093CA
S1130C502001D1110EC0CC23E1F0212FA2E2B1E09A
S1130C60E12FFF2D81918D938E2F821B8C17D0F352
S1130C7010C010921F0188EF8093140185EA8093BD
S1130C80BC00D13071F46C2F812F9F2D0E94EE0592
S1130C9008C010921F0188EF8093140185EA8093A5
S1130CA0BC0080E0DF91CF911F910F91FF900895D8
S1130CB01F920F920FB60F9211242F933F938F938D
S1130CC09F93AF93BF93EF93FF938091B9008C7F71
S1130CD090E0FC013897E135F10508F056C0EC5C72
S1130CE0FF4F0C940F0710921E01E0911E0180919A
S1130CF02001E81770F481E08E0F80931E01F0E06C
S1130D00EF5DFE4F80818093BB0085E88093BC003B
S1130D1043C080911F01816080931F0184E9809307
S1130D20BC003AC0E0911E0181E08E0F80931E0149
S1130D308091BB00F0E0EF5DFE4F808320911E01A7
S1130D4030E08091200190E001972817390724F4BE
S1130D5085EC8093BC0020C085E88093BC001CC057
S1130D608091BB00E0911E01F0E0EF5DFE4F8083B7
S1130D7080911F01816080931F0184E98093BC00EE
S1130D800BC085EA8093BC0007C08091B9008093B2
S1130D90140184E08093BC00FF91EF91BF91AF9167
S1130DA09F918F913F912F910F900FBE0F901F90A5
S1130DB0189597FB072E16F4009407D077FD09D0F9
S1130DC00E94330707FC05D03EF4909581959F4F10
S1130DD00895709561957F4F0895A1E21A2EAA1B7C
S1130DE0BB1BFD010DC0AA1FBB1FEE1FFF1FA217D7
S1130DF0B307E407F50720F0A21BB30BE40BF50BD4
S1130E00661F771F881F991F1A9469F7609570955C
S1130E10809590959B01AC01BD01CF010895EE0F23
S1130E20FF1F0590F491E02D099497FB10F8169498
S1130E3000080F93083098F00850232F342F452FC3
S1130E40562F672F782F892F902DF4CF05949795DF
S1130E5087957795679557954795379527950A957B
S1130E60AAF70F910895AA1BBB1B51E107C0AA1F43
S1130E70BB1FA617B70710F0A61BB70B881F991F37
S1130E805A95A9F780959095BC01CD010895A0E0ED
S1130E90B0E0EDE4F7E00C94E309FE0135966191CE
S1130EA07191AF0180912E0190912F010E945B07F7
S1130EB0E2E00C94FF09ACE0B0E0E1E6F7E00C946A
S1130EC0D3097C016B018A01FC011782168283819C
S1130ED081FFBDC1CE0101964C01F7019381F6015A
S1130EE093FD859193FF81916F01882309F4ABC130
S1130EF0853239F493FD859193FF81916F01853299
S1130F0029F4B70190E00E944309E7CF512C312C1A
S1130F1020E02032A0F48B3269F030F4803259F0B2
S1130F20833269F420612CC08D3239F0803339F476
S1130F30216026C02260246023C0286021C027FDD0
S1130F4027C030ED380F3A3078F426FF06C0FAE0B7
S1130F505F9E300D1124532E13C08AE0389E300D4D
S1130F601124332E20620CC08E3221F426FD6BC175
S1130F70206406C08C3611F4206802C0883641F41F
S1130F80F60193FD859193FF81916F018111C1CF8A
S1130F90982F9F7D9554933028F40C5F1F4FFFE3E7
S1130FA0F9830DC0833631F0833771F0833509F04E
S1130FB05BC022C0F801808189830E5F1F4F4424E7
S1130FC04394512C540115C03801F2E06F0E711C8A
S1130FD0F801A080B18026FF03C0652D70E002C037
S1130FE06FEF7FEFC5012C870E9438092C01830124
S1130FF02C852F77222E17C03801F2E06F0E711C5A
S1131000F801A080B18026FF03C0652D70E002C006
S11310106FEF7FEFC5012C870E942D092C012C85D1
S11310202068222E830123FC1BC0832D90E04816E8
S11310305906B0F4B70180E290E00E9443093A9463
S1131040F4CFF50127FC859127FE81915F01B7015B
S113105090E00E94430931103A94F1E04F1A51088C
S11310604114510471F7E5C0843611F0893639F51D
S1131070F80127FF07C060817181828193810C5F31
S11310801F4F08C060817181882777FD8095982F54
S11310900E5F1F4F2F76B22E97FF09C09095809553
S11310A0709561957F4F8F4F9F4F2068B22E2AE035
S11310B030E0A4010E947509A82EA81844C0853701
S11310C029F42F7EB22E2AE030E025C0F22FF97FDA
S11310D0BF2E8F36C1F018F4883579F0B4C080374C
S11310E019F0883721F0AFC02F2F2061B22EB4FE43
S11310F00DC08B2D8460B82E09C024FF0AC09F2F19
S11311009660B92E06C028E030E005C020E130E04A
S113111002C020E132E0F801B7FE07C060817181AE
S1131120828193810C5F1F4F06C06081718180E0D2
S113113090E00E5F1F4FA4010E947509A82EA81805
S1131140FB2DFF77BF2EB6FE0BC02B2D2E7FA514D3
S113115050F4B4FE0AC0B2FC08C02B2D2E7E05C08C
S11311607A2C2B2D03C07A2C01C0752C24FF0DC0C2
S1131170FE01EA0DF11D8081803311F4297E09C03E
S113118022FF06C07394739404C0822F867809F0FA
S1131190739423FD13C020FF06C05A2C731418F453
S11311A0530C5718732C731468F4B70180E290E061
S11311B02C870E94430973942C85F5CF731410F483
S11311C0371801C0312C24FF12C0B70180E390E02E
S11311D02C870E9443092C8522FF17C021FF03C0DE
S11311E088E590E002C088E790E0B7010CC0822F48
S11311F0867859F021FD02C080E201C08BE227FD10
S11312008DE2B70190E00E944309A51438F4B701B8
S113121080E390E00E9443095A94F7CFAA94F40122
S1131220EA0DF11D8081B70190E00E944309A110ED
S1131230F5CF332009F451CEB70180E290E00E944B
S113124043093A94F6CFF7018681978102C08FEF64
S11312509FEF2C96E2E10C94EF09FC01059061509C
S113126070400110D8F7809590958E0F9F1F0895B8
S1131270FC016150704001900110D8F78095909561
S11312808E0F9F1F08950F931F93CF93DF93182FF3
S1131290092FEB018B8181FD03C08FEF9FEF20C0ED
S11312A082FF10C04E815F812C813D81421753071C
S11312B07CF4E881F9819F012F5F3F4F39832883B4
S11312C0108306C0E885F985812F0995892B29F7B4
S11312D02E813F812F5F3F4F3F832E83812F902F9D
S11312E0DF91CF911F910F910895FA01AA27283019
S11312F051F1203181F1E8946F936E7F6E5F7F4FDF
S11313008F4F9F4FAF4FB1E03ED0B4E03CD0670F5A
S1131310781F891F9A1FA11D680F791F8A1F911DAD
S1131320A11D6A0F711D811D911DA11D20D009F4FD
S113133068943F912AE0269F11243019305D31933F
S1131340DEF6CF010895462F4770405D4193B3E028
S11313500FD0C9F7F6CF462F4F70405D4A3318F0CF
S1131360495D31FD4052419302D0A9F7EACFB4E080
S1131370A6959795879577956795BA95C9F7009738
S11313806105710508959B01AC010A2E06945795D9
S1131390479537952795BA95C9F7620F731F841F30
S11313A0951FA01D08952F923F924F925F926F92C6
S11313B07F928F929F92AF92BF92CF92DF92EF92E1
S11313C0FF920F931F93CF93DF93CDB7DEB7CA1B62
S11313D0DB0B0FB6F894DEBF0FBECDBF09942A888D
S11313E0398848885F846E847D848C849B84AA8435
S11313F0B984C884DF80EE80FD800C811B81AA81C2
S1131400B981CE0FD11D0FB6F894DEBF0FBECDBF8C
S10B1410ED010895F894FFCFEB
S11314180000000300000000C101A4000000200037
S111142800100100F82025643A25642000001D
S9030000FC
