S011000050574D5F54657374652E73726563BB
S11300000C9434000C943E000C943E000C943E007E
S11300100C943E000C943E000C943E000C943E0064
S11300200C943E000C943E000C943E000C943E0054
S11300300C943E000C943E000C943E000C943E0044
S11300400C943E000C943E000C943E000C943E0034
S11300500C943E000C943E000C943E000C943E0024
S11300600C943E000C943E0011241FBECFEFD8E048
S1130070DEBFCDBF0E9440000C9460000C940000D1
S113008083E8809380008DE18093810088E391E090
S11300909093890080938800219A90E087B5803FEF
S11300A018F487B5805F01C0892F87BD2FEF31EE2B
S11300B084E0215030408040E1F700C00000EECFE2
S10700C0F894FFCFDE
S9030000FC
