S01A000041505F627574746F6E4C636442757A7A65722E73726563E9
S11300000C94A0000C94BD000C94BD000C94BD0095
S11300100C94BD000C948F030C94BD000C94BD0093
S11300200C94BD000C94BD000C94BD000C94BD0058
S11300300C94BD000C94BD000C94F8030C94BD000A
S11300400C94BD000C94BD000C94BD000C94BD0038
S11300500C94BD000C94BD000C94BD000C94BD0028
S11300600C94BD000C94BD0079057B057B057B05D4
S11300707B05790579057B057B0579057B057B0582
S113008079057B057B057B0579057B059905990534
S1130090990599059B059905990599059E05990565
S11300A09905A10599059905990599059905990554
S11300B0BC05BC05BC05BC05BE05BC05BC05BC0532
S11300C0C105BC05BC05C405BC05BC05BC05BC0517
S11300D0BC05BC05120617061706170629061206E4
S11300E0120617062906120617062906120617060F
S11300F01706170612061706DF06F106F106F106C3
S11301000307F106DF06F1060307DF06F10603071E
S1130110DF06F106F106F106DF06F106F408F4083D
S1130120E408E608E608E808E808E808E808EA0851
S1130130EA08EA08EC08EC08EE08F008F208F2080D
S113014011241FBECFEFD8E0DEBFCDBF11E0A0E089
S1130150B1E0E4EDF9E102C005900D92A83BB107CE
S1130160D9F721E0A8EBB1E001C01D92AE3CB20783
S1130170E1F70E94BF000C94E80C0C940000CF93AC
S1130180DF93CDB7DEB7E0970FB6F894DEBF0FBEAE
S1130190CDBF88E0E4E1F1E0DE011E9601900D920E
S11301A08A95E1F788E0ECE1F1E0DE0156960190F2
S11301B00D928A95E1F7FE0131968DE0DF011D92E3
S11301C08A95E9F78B8580618B878DE0DE015E96E9
S11301D001900D928A95E1F700E022E048E250E0B8
S11301E067E270E0CE014E960E942C0420E045E2C6
S11301F050E064E270E0CE014E960E941C0440E0A0
S113020068E0CE014E960E94C206CE014E960E9430
S11302104604589A599A5A9AE8E6F0E08081846034
S11302208083EDE6F0E0808181608083808182605C
S1130230808380818460808384B5826084BD89E00A
S113024087BDEEE6F0E080818260808381E090E00B
S11302509093BF018093BE01789485B5846085BD79
S113026022242394312CE1E0F0E0FEA7EDA7EE2454
S1130270EA94FE2C412C512C812C912C9E01225F5E
S11302803F4F3CA72BA70F2EFCE76F2EF1E07F2EEC
S1130290F02D3BA53FA74CA548AB57018DA59EA5C6
S11302A0019709F0F7C0CE014E960E94360584E20C
S11302B091E09F938F930E9495099FEFA7EAB1E67F
S11302C09150A040B040E1F700C00000CE014E962E
S11302D00E9436058091BC019091BD010F900F9052
S11302E00197E1F18091BA019091BB01019701F569
S11302F080910401909105010196909305018093EA
S113030004011092BB011092BA01809104019091F2
S113031005010A9749F4809104019091050106971B
S11303209093050180930401CE014E960E943605F8
S113033080910401909105019F938F93AEE3B1E006
S1130340BF93AF930E9495098091BC019091BD0128
S11303500F900F900F900F90019721F61092BD010E
S11303601092BC01CE014E960E94360581E090E0C9
S11303709F8B8E8B998F888F9B8F8A8F9D8F8C8F6D
S11303808091BE019091BF010E948A099E01225F63
S11303903F4F790100E010E00E948509609104015B
S11303A0709105010E941D090196D7018D939D93BB
S11303B07D0101301105C9F4288939898E859F850D
S11303C02817390709F057C00E9485096091040174
S11303D0709105010E941D090196998B888B2E85C9
S11303E03F852817390781F346C002301105C9F447
S11303F00BC00E94850960910401709105010E945F
S11304001D0901969B8B8A8B8A899B892889398946
S11304108217930771F32E853F858217930749F35B
S11304207BC10330110539F50BC00E948509609129
S11304300401709105010E941D0901969D8B8C8B0E
S11304408C899D892A893B898217930771F32889AE
S113045039898217930749F32E853F8582179307BD
S113046021F31EA61DA6AA24AA94BA2C412C512C11
S1130470812C912C0FC00F5F1F4F0430110509F020
S11304808BCF1EA61DA6AA24AA94BA2C412C512CAB
S1130490812C912CBFEFAB1ABB0A00E010E0C12CF9
S11304A0D12CEC2CFD2C8091BA019091BB010197C9
S11304B029F5F801EE0FFF1F21E030E02C0F3D1F5E
S11304C0E20FF31F858996890196968B858B20917F
S11304D00401309105012817390760F4F801EE0F83
S11304E0FF1F41E050E04C0F5D1FE40FF51F51E08A
S11304F0558B168AD092BB01C092BA018091BC017F
S11305009091BD01019731F40F5F1F4FD092BD014F
S1130510C092BC018D8D8F938C8D8F938B8D8F9317
S11305208A8D8F93898D8F93888D8F938F898F93E5
S11305308E898F93A0E5B1E0BF93AF930E94950994
S11305409F928F925F924F92BF92AF92A5E6B1E0D5
S1130550BF93AF930E9495098091B8019091B9011E
S11305600FB6F894DEBF0FBECDBF0197F9F48D89A5
S11305708F938C898F938B898F938A898F938989A1
S11305808F9388898F938F858F938E858F937F9296
S11305906F920E9495098091B8019091B9010FB6AC
S11305A0F894DEBF0FBECDBF019709F304301105E7
S11305B009F048C0B601E1E0F0E081E090E08F018D
S11305C008C0C80101968430910508F0A0C0B801A4
S11305D08C019B01220F331FA1E0B0E0AC0FBD1FC3
S11305E02A0F3B1FDC01AA0FBB1FE1E0F0E0EC0F78
S11305F0FD1FAE0FBF1FF9014589568955962D91F0
S11306003C9156974217530711F42E2C3F2C019618
S113061084309105F0F2D5CFCE014E960E94360576
S113062082E991E00E94A909FFEF27EA31E6F1503F
S113063020403040E1F700C0000022242394312CF4
S1130640860131CF0430110508F42DCFCE014E962A
S11306500E943605DE01569660E070E0412C512C74
S1130660812C912C00E010E0FFA4E8A818C021918F
S113067031912417350751F48617970721F42FEF8A
S1130680821A920A03C03FEF431A530A0196843038
S1130690910569F76F5F7F4F6430710539F04D91B3
S11306A05D91EF2DFE2D802F912FE1CF44E0841634
S11306B0910409F0F3CDCE014E960E9436058FE9E0
S11306C091E00E94A909439A5FEF83ED90E35150B2
S11306D080409040E1F700C000004398AFEFB9E6D6
S11306E0E8E1A150B040E040E1F700C00000439AC7
S11306F0FFEF23ED30E3F15020403040E1F700C03C
S11307000000439841E050E05EA74DA7C7CD2114F7
S1130710310409F09BCF80CF0F5F1F4F3DCE1F9256
S11307200F920FB60F9211242F938F939F932FE75D
S113073088E391E0215080409040E1F700C0000040
S1130740489B10C08091C4019091C501019751F458
S113075081E090E09093BD018093BC011092C501AB
S11307601092C401489906C081E090E09093C501BD
S11307708093C401499B10C08091C2019091C30130
S1130780019751F481E090E09093BB018093BA010A
S11307901092C3011092C201499906C081E090E011
S11307A09093C3018093C2014A990AC081E090E00A
S11307B09093C1018093C0019093B9018093B801D3
S11307C04A9B0EC08091C0019091C101019741F4F0
S11307D01092B9011092B8011092C1011092C00197
S11307E09F918F912F910F900FBE0F901F9018958E
S11307F01F920F920FB60F9211248F939F938091A3
S1130800BE019091BF0101969093BF018093BE01F8
S11308108091BE019091BF018F3F910530F081E03E
S113082090E09093BF018093BE019F918F910F90B0
S11308300FBE0F901F901895FC0171836083538342
S11308404283822F87702481287F282B24838485E8
S11308508260848780E008950F93FC01768365832A
S1130860508747832770220F220F220F8185877CB0
S1130870282B2187802F87700185087F082B01870B
S113088084858460848780E00F910895FC01248529
S113089023FF14C026E031E03093CD012093CC0136
S11308A03093CB012093CA013093C9012093C8012E
S11308B09093C7018093C60180E0089587E008956E
S11308C0CF93DF93FC01A781B0854C9121852770DC
S11308D081E090E0EC0102C0CC0FDD1F2A95E2F725
S11308E09E01209524232C93A781B0854C912185CA
S11308F02695269526952770EC0102C0CC0FDD1FA6
S11309002A95E2F79E01209524232C93A281B3819A
S11309107C91248127704FE050E0EA0102C0CC0FA3
S1130920DD1F2A95E2F79E01209527232C93A281AF
S1130930B3813C9144814770262F22952F7001C0CA
S1130940220F4A95EAF7232B2C93A781B0853C917B
S11309502185269526952695277002C0880F991F14
S11309602A95E2F7832B8C93D5E0DA95F1F7000012
S1130970A781B0854C9181858695869586958770EB
S113098021E030E0E90102C0CC0FDD1F8A95E2F7D7
S1130990CE01809584238C93D5E0DA95F1F700009D
S11309A0A281B3814C91848187702FE030E0E9010A
S11309B002C0CC0FDD1F8A95E2F7CE018095842317
S11309C08C93A281B3819C9124812770862F8F7090
S11309D001C0880F2A95EAF7892B8C93A781B085EB
S11309E04C919185969596959695977021E030E077
S11309F0E90102C0CC0FDD1F9A95E2F7CE01842BEA
S1130A008C93D5E0DA95F1F70000A781B0854C917D
S1130A1081858695869586958770E90102C0CC0FFD
S1130A20DD1F8A95E2F7CE01809584238C93D5E06F
S1130A30DA95F1F700006150623080F48FE39FE1B2
S1130A400197F1F700C0000083858F778387848541
S1130A508E7F848783858178838704C095ED9A95FA
S1130A60F1F7000080E0DF91CF910895FC01248527
S1130A7023FF04C061E00E946004089587E00895A4
S1130A80DC011C968C911C9783FFA5C06130B1F4E6
S1130A9019969C91199792959695969593701A9696
S1130AA08C911A978770880F880F892B90E0019793
S1130AB0429708F092C09FEF940F68C06230F1F43F
S1130AC019969C91199792959695969593701A9666
S1130AD08C911A978770880F880F892B90E0019763
S1130AE08231910508F07BC08C5C9F4FFC010C9413
S1130AF0310984E008959FE3940F48C0633021F5E1
S1130B0019969C91199792959695969593701A9625
S1130B108C911A978770880F880F892B90E0019722
S1130B208231910508F05DC08A5B9F4FFC010C94F3
S1130B30310984E008959BE0940F28C09FE0940F4E
S1130B4025C093E1940F22C019969C911997929510
S1130B509695969593701A968C911A978770880F2C
S1130B60880F892B90E0019782319105E0F5885A2E
S1130B709F4FFC010C94310984E008959BE4940F89
S1130B8005C09FE4940F02C093E5940F6150637015
S1130B901B968C911B9760FB87F91B968C931B9774
S1130BA066951C968C911C978E7F862B1C968C9335
S1130BB01C978FEF840F8F73880F1B964C911B9794
S1130BC04178482B1B964C931B97692F6068CD0185
S1130BD00E946004089587E0089583E0089583E007
S1130BE0089583E0089583E00895DC011C962C9118
S1130BF01C9723FF50C019962C911997229526957E
S1130C00269523701A96EC91E770EE0FEE0FE22B07
S1130C10F0E03197E231F10508F03FC0E659FF4FAB
S1130C200C94310941E061E00E9440050895FC0103
S1130C303385331F3327331F24852170220F232B41
S1130C4061E0213009F460E06F5F41E00E944005FB
S1130C500895DC011B963C911B97331F3327331FE8
S1130C601C962C911C972170220F232B233069F0A2
S1130C701B962C911B97221F2227221F1C966C91D6
S1130C806170660F622B6F5F01C060E06F5F41E0CF
S1130C900E944005089587E0089583E00895CF9366
S1130CA0DF93FC01A781B0854C912185277081E0F9
S1130CB090E0EC0102C0CC0FDD1F2A95E2F79E0103
S1130CC0209524232C93A781B0854C9121852695CA
S1130CD0269526952770EC0102C0CC0FDD1F2A95BE
S1130CE0E2F79E01209524232C93A281B3817C9169
S1130CF0248127704FE050E0EA0102C0CC0FDD1FD1
S1130D002A95E2F79E01209527232C93A281B38193
S1130D102C913481377062956F7001C0660F3A95DB
S1130D20EAF7622B6C93A781B0853C9121852695C7
S1130D3026952695277002C0880F991F2A95E2F7F9
S1130D40832B8C93D5E0DA95F1F70000A781B08569
S1130D504C918185869586958695877021E030E053
S1130D60B90102C0660F771F8A95E2F7CB0180951F
S1130D7084238C9375ED7A95F1F7000080E0DF9180
S1130D80CF9108951F93CF93DF93EC01862F4423D3
S1130D9019F0413029F011C19A85977F9A8703C0D1
S1130DA09A8598609A87482F50E0FA013197E2318A
S1130DB0F10508F004C1E458FF4F0C943109982F51
S1130DC09F718295880F880F807C29852F73822BD1
S1130DD08987969596958A85887F892B8A8711E0DD
S1130DE023C0982F9F718295880F880F807C298556
S1130DF02F73822B8987969596958A85887F892B70
S1130E008A8712E011C0982F9F718295880F880FEE
S1130E10807C29852F73822B8987969596958A8560
S1130E20887F892B8A8714E08C8581FFCAC08C85D2
S1130E3082FFC9C0EA81FB8140812C8127708FE049
S1130E4090E0BC0102C0660F771F2A95E2F79B0170
S1130E50209524232083E881F98120813C81377007
S1130E6002C0880F991F3A95E2F7822B8083EF81A5
S1130E70F88540812985269526952695277081E059
S1130E8090E0BC0102C0660F771F2A95E2F79B0130
S1130E90209524232083ED81FE8140813985369578
S1130EA0369536953770BC0102C0660F771F3A95A8
S1130EB0E2F79B01242B2083EF81F885408129856B
S1130EC02770BC0102C0660F771F2A95E2F79B01C9
S1130ED0209524232083ED81FE812081398537707C
S1130EE002C0880F991F3A95E2F7822B80838FE521
S1130EF09AEE0197F1F700C0000060E3CE010E9472
S1130F004F068FE19EE40197F1F700C0000060E313
S1130F10CE010E944F068FEE90E00197F1F700C0DA
S1130F20000060E3CE010E944F068FEE90E001972F
S1130F30F1F700C0000060E2CE010E944F068A85EE
S1130F408A8583FD02C060E201C064E2123011F0C0
S1130F50143009F46860CE010E94600468E0CE0198
S1130F600E94600461E0CE010E9460048A8584FFCF
S1130F7002C066E001C064E08A8585FD6160CE013F
S1130F800E9460046CE0CE010E9460048C8588603D
S1130F908C878A8580648A878A858F778A878B8500
S1130FA08E7F8B878B858F778B878C858E7F8C87C5
S1130FB08B8581788B8780E007C081E005C083E062
S1130FC003C085E001C086E0DF91CF911F910895B1
S1130FD0CF93DF93FC01848583FFC8C08385869506
S1130FE08F7390E088970CF0C3C0A781B0854C91B3
S1130FF02185277081E090E0EC0102C0CC0FDD1F59
S11310002A95E2F79E01242B2C93A781B0854C915D
S113101021852695269526952770EC0102C0CC0FD4
S1131020DD1F2A95E2F79E01209524232C93A281AB
S1131030B3817C91248127704FE050E0EA0102C023
S1131040CC0FDD1F2A95E2F79E01209527232C93D0
S1131050A281B3813C9144814770262F22952F7041
S113106001C0220F4A95EAF7232B2C93A781B08560
S11310703C912185269526952695277002C0880FD8
S1131080991F2A95E2F7832B8C93D5E0DA95F1F733
S11310900000A781B0854C918185869586958695BB
S11310A0877021E030E0E90102C0CC0FDD1F8A9592
S11310B0E2F7CE01809584238C93D5E0DA95F1F79D
S11310C00000A281B3814C91848187702FE030E0CD
S11310D0E90102C0CC0FDD1F8A95E2F7CE018095AD
S11310E084238C93A281B3818C91948197706F70C7
S11310F001C0660F9A95EAF7682B6C93A781B085B7
S11311004C919185969596959695977021E030E04F
S1131110B90102C0660F771F9A95E2F7CB01842BC1
S11311208C9375E07A95F1F70000A781B0854C9116
S113113081858695869586958770E90102C0CC0FD6
S1131140DD1F8A95E2F7CE01809584238C93D5ED3B
S1131150DA95F1F70000938596959F5F9F73990F39
S113116083858178892B838780E003C087E001C071
S113117080E0DF91CF9108950F931F93CF93DF9376
S1131180A091C601B091C7011C969C911C9793FF36
S11311904DC019969C911997929596959695937032
S11311A01A962C911A972770220F220F292B30E0C0
S11311B0215031092231310528F422573F4FF901DA
S11311C00C94310910E011C01AE00FC01CE00DC0EE
S11311D010E10BC014E109C018E107C01EE105C00D
S11311E010E203C018E201C018E08A30D9F41B965B
S11311F00C9106950F73011770F4C0E0D0E060E223
S11312008091C6019091C7010E94E80721968C2F16
S1131210800F8117A0F38091C6019091C7010E94AD
S1131220F50504C0682FCD010E94E80780E090E036
S1131230DF91CF911F910F910895AA1BBB1B51E120
S113124007C0AA1FBB1FA617B70710F0A61BB70B32
S1131250881F991F5A95A9F780959095BC01CD01D7
S11312600895EE0FFF1F0590F491E02D09948F92DD
S11312709F92AF92BF92CF92DF92EF92FF92CF9361
S1131280DF93EC01688179818A819B816115710505
S11312908105910521F464E279ED8BE597E02DE178
S11312A033EF41E050E00E944E0C49015A019B018A
S11312B0AC01A7EAB1E40E946D0C6B017C01ACEEB9
S11312C0B4EFA50194010E947B0CC60ED71EE81E44
S11312D0F91EF7FE06C081E0C81AD108E10880E8CB
S11312E0F80AC882D982EA82FB82C6019F77DF911D
S11312F0CF91FF90EF90DF90CF90BF90AF909F90F1
S11313008F9008950E943709089580E091E00E942B
S113131037090895A0E0B0E08093000190930101A3
S1131320A0930201B09303010895A0E0B0E0EBE9BB
S1131330F9E00C94900CFE01359661917191AF0126
S11313408091CA019091CB010E94D609E2E00C94ED
S1131350AC0C0F931F93CF93DF93E091CA01F091EC
S1131360CB01238121FF1BC0EC0100E010E0899137
S11313706091CA017091CB01DB011896ED91FC914B
S11313801997882331F00995892B89F30FEF1FEF03
S1131390EECF8AE00995892B11F4C80102C08FEFC2
S11313A09FEFDF91CF911F910F910895ACE0B0E0D2
S11313B0ECEDF9E00C94800C7C016B018A01FC01DA
S11313C017821682838181FFBDC1CE0101964C0133
S11313D0F7019381F60193FD859193FF81916F014C
S11313E0882309F4ABC1853239F493FD859193FFC9
S11313F081916F01853229F4B70190E00E94BE0B00
S1131400E7CF512C312C20E02032A0F48B3269F04C
S113141030F4803259F0833269F420612CC08D326B
S113142039F0803339F4216026C02260246023C05F
S1131430286021C027FD27C030ED380F3A3078F4FA
S113144026FF06C0FAE05F9E300D1124532E13C010
S11314508AE0389E300D1124332E20620CC08E3267
S113146021F426FD6BC1206406C08C3611F420687B
S113147002C0883641F4F60193FD859193FF819172
S11314806F018111C1CF982F9F7D9554933028F41B
S11314900C5F1F4FFFE3F9830DC0833631F08337B0
S11314A071F0833509F05BC022C0F8018081898323
S11314B00E5F1F4F44244394512C540115C038012E
S11314C0F2E06F0E711CF801A080B18026FF03C00A
S11314D0652D70E002C06FEF7FEFC5012C870E947D
S11314E0B30B2C0183012C852F77222E17C03801D2
S11314F0F2E06F0E711CF801A080B18026FF03C0DA
S1131500652D70E002C06FEF7FEFC5012C870E944C
S1131510A80B2C012C852068222E830123FC1BC0E0
S1131520832D90E048165906B0F4B70180E290E0AC
S11315300E94BE0B3A94F4CFF50127FC859127FE57
S113154081915F01B70190E00E94BE0B31103A9483
S1131550F1E04F1A51084114510471F7E5C0843683
S113156011F0893639F5F80127FF07C060817181D0
S1131570828193810C5F1F4F08C06081718188272D
S113158077FD8095982F0E5F1F4F2F76B22E97FF11
S113159009C090958095709561957F4F8F4F9F4FAF
S11315A02068B22E2AE030E0A4010E94F00BA82E9D
S11315B0A81844C0853729F42F7EB22E2AE030E0E3
S11315C025C0F22FF97FBF2E8F36C1F018F488356D
S11315D079F0B4C0803719F0883721F0AFC02F2FCD
S11315E02061B22EB4FE0DC08B2D8460B82E09C0CC
S11315F024FF0AC09F2F9660B92E06C028E030E071
S113160005C020E130E002C020E132E0F801B7FE7D
S113161007C060817181828193810C5F1F4F06C076
S11316206081718180E090E00E5F1F4FA4010E94F1
S1131630F00BA82EA818FB2DFF77BF2EB6FE0BC00B
S11316402B2D2E7FA51450F4B4FE0AC0B2FC08C0A2
S11316502B2D2E7E05C07A2C2B2D03C07A2C01C095
S1131660752C24FF0DC0FE01EA0DF11D808180332D
S113167011F4297E09C022FF06C07394739404C038
S1131680822F867809F0739423FD13C020FF06C0CF
S11316905A2C731418F4530C5718732C731468F4DD
S11316A0B70180E290E02C870E94BE0B73942C85D6
S11316B0F5CF731410F4371801C0312C24FF12C075
S11316C0B70180E390E02C870E94BE0B2C8522FF9B
S11316D017C021FF03C088E590E002C088E790E0CE
S11316E0B7010CC0822F867859F021FD02C080E238
S11316F001C08BE227FD8DE2B70190E00E94BE0B92
S1131700A51438F4B70180E390E00E94BE0B5A940C
S1131710F7CFAA94F401EA0DF11D8081B70190E09E
S11317200E94BE0BA110F5CF332009F451CEB701AE
S113173080E290E00E94BE0B3A94F6CFF7018681D6
S1131740978102C08FEF9FEF2C96E2E10C949C0CE2
S1131750FC010590615070400110D8F78095909578
S11317608E0F9F1F0895FC0161507040019001107D
S1131770D8F7809590958E0F9F1F08950F931F9310
S1131780CF93DF93182F092FEB018B8181FD03C0C9
S11317908FEF9FEF20C082FF10C04E815F812C81AC
S11317A03D81421753077CF4E881F9819F012F5F43
S11317B03F4F39832883108306C0E885F985812F3C
S11317C00995892B29F72E813F812F5F3F4F3F8356
S11317D02E83812F902FDF91CF911F910F91089528
S11317E0FA01AA27283051F1203181F1E8946F934E
S11317F06E7F6E5F7F4F8F4F9F4FAF4FB1E03ED0F4
S1131800B4E03CD0670F781F891F9A1FA11D680F91
S1131810791F8A1F911DA11D6A0F711D811D911DC4
S1131820A11D20D009F468943F912AE0269F112439
S11318303019305D3193DEF6CF010895462F47709D
S1131840405D4193B3E00FD0C9F7F6CF462F4F70F8
S1131850405D4A3318F0495D31FD4052419302D056
S1131860A9F7EACFB4E0A6959795879577956795FC
S1131870BA95C9F700976105710508959B01AC01FC
S11318800A2E06945795479537952795BA95C9F723
S1131890620F731F841F951FA01D0895052E97FBCB
S11318A01EF400940E94650C57FD07D00E94B70CEB
S11318B007FC03D04EF40C94650C5095409530957C
S11318C021953F4F4F4F5F4F0895909580957095A8
S11318D061957F4F8F4F9F4F08950E94D90CA59F0C
S11318E0900DB49F900DA49F800D911D1124089517
S11318F0B7FF0C946D0C0E946D0C821B930B089522
S11319002F923F924F925F926F927F928F929F920B
S1131910AF92BF92CF92DF92EF92FF920F931F93F9
S1131920CF93DF93CDB7DEB7CA1BDB0B0FB6F894AA
S1131930DEBF0FBECDBF09942A88398848885F84EA
S11319406E847D848C849B84AA84B984C884DF805B
S1131950EE80FD800C811B81AA81B981CE0FD11D3F
S11319600FB6F894DEBF0FBECDBFED010895A1E21E
S11319701A2EAA1BBB1BFD010DC0AA1FBB1FEE1F05
S1131980FF1FA217B307E407F50720F0A21BB30B50
S1131990E40BF50B661F771F881F991F1A9469F7CC
S11319A060957095809590959B01AC01BD01CF0128
S11319B00895A29FB001B39FC001A39F700D811D24
S11319C01124911DB29F700D811D1124911D089544
S10719D0F894FFCFB5
S11319D40100000004000000000200000000BC0834
S11319E400000000010002000300040001000100E3
S11319F40100010053656C6563696F6E65206120A5
S1131A040A6469666963756C646164652100646968
S1131A14666963756C64616465203A2020256400FA
S1131A2453656E68613A2025642564256425642021
S1131A3420202020000A25642D2D2D2D3E25642EE2
S1131A44256420202020202020200A0041205365E2
S1131A546E68612065683A0A2564256425642564F2
S1131A640A0053656E68613A20585858580A005061
S1131A7461726162656E73210A53656E6861204305
S10B1A846F72726574610000C9
S9030000FC
