S01B00004174697669646164655F707261746963615F312E73726563AB
S11300000C943E000C945B000C945B000C945D001B
S11300100C945B000C945B000C945B000C945B00F0
S11300200C945B000C945B000C945B000C945B00E0
S11300300C945B000C945B000C945B000C945B00D0
S11300400C945B000C945B000C945B000C945B00C0
S11300500C945B000C945B000C945B000C945B00B0
S11300600C945B000C945B00E9000701EC00EF00CA
S1130070F200F500F800FB00FE00010111241FBE90
S1130080CFEFD8E0DEBFCDBF11E0A0E0B1E0E6E104
S1130090F5E002C005900D92AA30B107D9F721E02E
S11300A0AAE0B1E001C01D92AC30B207E1F70E94B2
S11300B00A010C9489020C9400001F920F920FB64F
S11300C00F9211248F939F931B9B15C0809106015F
S11300D090910701019779F08091080190910901AD
S11300E00196909309018093080181E090E0909338
S11300F00701809306011B9904C010920701109216
S113010006011A9B15C08091040190910501019785
S113011079F080910801909109010A969093090160
S11301208093080181E090E090930501809304019D
S11301301A9904C01092050110920401199B16C06B
S11301408091020190910301019781F0809108014F
S1130150909109018C599F4F909309018093080154
S113016081E090E09093030180930201199904C007
S11301701092030110920201189B16C08091000195
S113018090910101019781F08091080190910901FA
S113019088519C4F909309018093080181E090E07D
S11301A09093010180930001189904C010920101F9
S11301B0109200019F918F910F900FBE0F901F908E
S11301C018958A30910500F5FC01EC5CFF4F0C9406
S11301D0740280EC90E0089584EA90E0089580EB46
S11301E090E0089589E990E0089582E990E0089507
S11301F083E890E0089588EF90E0089580E890E027
S1130200089588E990E0089580E090E0089589EFEA
S113021090E00895CF93DF93CDB7DEB728970FB65C
S1130220F894DEBF0FBECDBF8FEF8AB98FE087B9D8
S113023088B9289A299A2A9A2B9AE8E6F0E08081CC
S113024081608083EBE6F0E080818160808380813F
S113025082608083808184608083808188608083E1
S113026078940F2EF8EEEF2EF3E0FF2EF02DB12C44
S1130270C12C01E010E00F2EFFE0DF2EF02D2091C5
S113028008013091090136952795369527953695BD
S11302902795A5ECB0E20E947A02AC0152954295F2
S11302A04F7045275F7045279A01ADECBCEC0E9466
S11302B07A029695879596958795969587959C014C
S11302C0220F331F880F991F880F991F880F991FBA
S11302D0820F931F9A01281B390BC9010E94E10068
S11302E098878F83209108013091090136952795CD
S11302F036952795ABE7B4E10E947A02AC01569596
S113030047959A01ADECBCEC0E947A0296958795CC
S113031096958795969587959C01220F331F880F94
S1130320991F880F991F880F991F820F931FDA0155
S1130330A81BB90BCD010E94E1009E838D832091FF
S1130340080130910901ADECBCEC0E947A02AC01C9
S11303505695479556954795569547959A010E9407
S11303607A029695879596958795969587959C019B
S1130370220F331F880F991F880F991F880F991F09
S1130380820F931F9A01281B390BC9010E94E100B7
S11303909C838B8340910801509109019A01ADEC33
S11303A0BCEC0E947A0296958795969587959695CA
S11303B087959C01220F331F880F991F880F991F5F
S11303C0880F991F820F931FDA01A81BB90BCD0167
S11303D00E94E1009A8389832091080130910901E8
S11303E0329522952F7023273F702327A7E4B3E08B
S11303F00E947A02AC0156954795569547955695B5
S113040047959A01ADECBCEC0E947A0296958795CB
S113041096958795969587959C01220F331F880F93
S1130420991F880F991F880F991F820F931F9A0194
S1130430281B390BC9010E94E10090930B018093A2
S11304400A0180910801909109018031974218F1C5
S113045040910801509109019A01369527953695E6
S1130460279536952795A5ECB0E20E947A029295DD
S113047082958F7089279F7089278E9D90018F9D0B
S1130480300D9E9D300D1124CA01821B930B909355
S1130490090180930801249A80910801909109012F
S11304A080319742E0F02C9A1AC0D8B82081329655
S11304B02BB948B19801082E02C0220F331F0A94A9
S11304C0E2F72095242328B9AFE1BEE41197F1F7B0
S11304D000C0000001968430910539F7D0CEFE01AA
S11304E031968B2D9C2DE1CFEE0FFF1F0590F491DB
S11304F0E02D0994A29FB001B39FC001A39F700D8A
S1130500811D1124911DB29F700D811D1124911D17
S10905100895F894FFCFEA
S10D051601000100010001000A07C2
S9030000FC
