S0160000446973706C6179456E636F6465722E7372656378
S11300000C943E000C9453000C9453000C94530035
S11300100C9455000C9453000C9453000C9453000E
S11300200C9453000C9453000C9453000C94530000
S11300300C9453000C9453000C9453000C945300F0
S11300400C9453000C9453000C9453000C945300E0
S11300500C9453000C9453000C9453000C945300D0
S11300600C9453000C9453003C0150013E01400198
S113007042014401460148014A014C0111241FBEBA
S1130080CFEFD8E0DEBFCDBF11E0A0E0B1E0E4EAFD
S1130090F4E002C005900D92A630B107D9F70E9492
S11300A052010C9450020C9400001F920F920FB650
S11300B00F9211242F938F939F93309B2EC03199CD
S11300C02CC082E090E09093030180930201809120
S11300D0000190910101892B49F4809104019091D0
S11300E0050101969093050180930401809100011C
S11300F090910101039749F48091040190910501C5
S113010001979093050180930401809102019091DD
S11301100301909301018093000130992CC031991F
S11301202AC0109203011092020180910001909163
S11301300101019749F48091040190910501019610
S11301409093050180930401809100019091010135
S1130150029749F4809104019091050101979093CD
S11301600501809304018091020190910301909311
S113017001018093000130992EC0319B2CC081E095
S113018090E090930301809302018091000190918B
S11301900101039749F480910401909105010196AE
S11301A090930501809304018091000190910101D5
S11301B0892B49F480910401909105010197909352
S11301C005018093040180910201909103019093B1
S11301D0010180930001309B2EC0319B2CC083E031
S11301E090E090930301809302018091000190912B
S11301F00101029749F4809104019091050101964F
S11302009093050180930401809100019091010174
S1130210019749F48091040190910501019790930D
S11302200501809304018091020190910301909350
S113023001018093000180910401909105018131B5
S1130240974250F0809104019091050180519742AA
S113025090930501809304019F918F912F910F90AA
S11302600FBE0F901F9018958A309105B8F4FC01C9
S1130270EC5CFF4F0C943B0280EC089584EA0895F3
S113028080EB089589E9089582E9089583E8089543
S113029088EF089580E8089588E9089580E0089536
S11302A089EF0895CF93DF9300D000D0CDB7DEB7A8
S11302B08FEF8AB98FE084B985B9409A419AE8E60C
S11302C0F0E0808182608083ECE6F0E080818160F0
S11302D080838081826080837894D12CE12C01E03A
S11302E010E00F2EFFE0FF2EF02D409104015091FD
S11302F005019A01ADECBCEC0E94410296958795EC
S113030096958795969587959C01220F331F880FA4
S1130310991F880F991F880F991F820F931F9A01A5
S1130320281B390BC9010E943401898320910401DF
S113033030910501ADECBCEC0E944102AC01569534
S1130340479556954795569547959A010E944102BF
S11303509695879596958795969587959C01220FF6
S1130360331F880F991F880F991F880F991F820FB9
S1130370931FDA01A81BB90BCD010E9434018A83B3
S113038020910401309105013695279536952795DE
S1130390ABE7B4E10E944102AC01569547959A013E
S11303A0ADECBCEC0E944102969587959695879595
S11303B0969587959C01220F331F880F991F880FEC
S11303C0991F880F991F820F931F9A01281B390BBD
S11303D0C9010E9434018B832091040130910501ED
S11303E0369527953695279536952795A5ECB0E251
S11303F00E944102AC01529542954F7045275F70AF
S113040045279A01ADECBCEC0E9441029695879574
S113041096958795969587959C01220F331F880F93
S1130420991F880F991F880F991F820F931FDA0154
S1130430A81BB90BCD010E9434018C83FE013196B7
S11304408D2D9E2DF5B821912BB945B19801082E1B
S113045002C0220F331F0A94E2F72095242325B902
S1130460AFE1BEE41197F1F700C0000001968430BB
S1130470910541F73ACFEE0FFF1F0590F491E02D5F
S11304800994A29FB001B39FC001A39F700D811D69
S11304901124911DB29F700D811D1124911D089589
S10704A0F894FFCFFA
S10904A4160016000A0711
S9030000FC
