:100000000C94B0000C94CD000C94CD000C94CD0059
:100010000C94CD000C94CD000C94CD000C94CD002C
:100020000C94CD000C94CD000C94CD000C94CD001C
:100030000C94CD000C94CD000C94CD000C94CD000C
:100040000C94CD000C94CD000C94CD000C94CD00FC
:100050000C94CD000C94CD000C94CD000C94CD00EC
:100060000C94CD000C94CD00C104D204E404F60439
:1000700008051A052C053E0550056105B204B204B9
:10008000B204B204720579051007120712071207AD
:10009000120710071007120712071007120712079E
:1000A0001007120712071207100712073007300750
:1000B0003007300732073007300730073507300781
:1000C0003007380730073007300730073007300770
:1000D000530753075307530755075307530753074E
:1000E0005807530753075B07530753075307530733
:1000F00053075307A907AE07AE07AE07C007A90706
:10010000A907AE07C007A907AE07C007A907AE0732
:10011000AE07AE07A907AE077608880888088808E2
:100120009A088808760888089A08760888089A083D
:100130007608880888088808760888088B0A8B0A59
:100140007B0A7D0A7D0A7F0A7F0A7F0A7F0A810A6D
:10015000810A810A830A830A850A870A890A890A29
:1001600011241FBECFEFD8E0DEBFCDBF11E0A0E06D
:10017000B1E0ECE4FFE102C005900D92AC35B107AF
:10018000D9F721E0ACE5B1E001C01D92A836B20775
:10019000E1F70E94C7030C94A40F0C940000AF92E7
:1001A000CF92DF92EF92FF920F93FC0171836083F5
:1001B000538342833583248307709485987F092B6A
:1001C0000487F782E682D186C0868A2D8770880FE1
:1001D000880F880F9485977CA92EA82AA4868585E8
:1001E0008064858781E00F91FF90EF90DF90CF9042
:1001F000AF9008956F927F928F929F92AF92BF922D
:10020000CF92DF92EF92FF920F931F93CF93DF93E2
:10021000CDB7DEB709891A898B898230F1F0833036
:1002200051F1813009F0B1C0D8011C968C911C9716
:100230008F7380641C968C931C971D968C911D97D0
:10024000887F84601D968C931D971D968C911D97B9
:10025000877C80621D968C9325C0F80184858F73FE
:10026000806884878585887F846085878585877C8D
:100270008861858717C0D8011C968C911C97806C6B
:100280001C968C931C971D968C911D97887F85607A
:100290001D968C931D971D968C911D97877C886168
:1002A0001D968C93F8013585377025852695269502
:1002B0002695277082859385329FB00111240E9474
:1002C000E10BD8011B969C938E931A971A968D91E9
:1002D0009C911B97892B09F45AC0CE0144961D9618
:1002E0002C91277009F448C0982EA92E60E070E088
:1002F000E12CB12CC12CD12C32C0FC01D8011A96B2
:100300006D907C901B971D968C918770882ECF01E5
:100310000296982EA92E869EA001879E500D11242C
:10032000260D371DD901A40FB51F20812C93F394FE
:100330002F2D30E0F8014585469546954695477046
:1003400050E024173507CCF2E3946E2D70E0D8010D
:100350001D968C91877090E0681779076CF4F8010E
:100360008585869586958695877071F3E92DFA2D9A
:100370002B2D3C2DFD2CC2CFD8011D968C911D97A5
:1003800080681D968C9381E003C082E001C083E009
:10039000DF91CF911F910F91FF90EF90DF90CF9061
:1003A000BF90AF909F908F907F906F900895DC01E9
:1003B0001D962C911D9726FF16C11D962C911D97F9
:1003C00022230CF012C11C962C911C97207C09F45E
:1003D0000EC11C962C911C9722952695269523706C
:1003E00030E02230310509F456C02330310509F4DC
:1003F000A1C02130310509F0FCC0ED91FC911197AD
:1004000070811C964C9147702FE030E0D90102C0FA
:10041000AA0FBB1F4A95E2F7AD01409547234083E1
:10042000DC011296ED91FC91139770811C964C9112
:100430004770D90102C0AA0FBB1F4A95E2F7AD0170
:10044000472B4083DC011696ED91FC911797708144
:100450001C965C915695569556955770D90102C0D9
:10046000AA0FBB1F5A95E2F7AD01472B4083DC0171
:100470001896ED91FC91199750811C964C914695D8
:1004800046954695477002C0220F331F4A95E2F702
:10049000252B20839DC0DC01ED91FC91119770818B
:1004A0001C964C9147702FE030E0D90102C0AA0F92
:1004B000BB1F4A95E2F7AD01409547234083DC011D
:1004C0001296ED91FC91139740811C965C911C97BC
:1004D000577002C0220F331F5A95E2F7242B208356
:1004E0001696ED91FC91179770811C965C9156952C
:1004F00056955695577027E030E0D90102C0AA0FF3
:10050000BB1F5A95E2F7AD01472B4083DC011896DB
:10051000ED91FC91199750811C964C91469546950A
:100520004695477002C0220F331F4A95E2F7252BEC
:1005300020834EC0DC01ED91FC91119770811C96D7
:100540004C9147702FE130E0D90102C0AA0FBB1FC8
:100550004A95E2F7AD01409547234083DC011296AE
:10056000ED91FC91139740811C965C911C975770FC
:1005700002C0220F331F5A95E2F7242B20831696D0
:10058000ED91FC91179770811C965C91569556954C
:100590005695577027E030E0D90102C0AA0FBB1F63
:1005A0005A95E2F7AD01472B4083DC011896ED9197
:1005B000FC91199750811C964C914695469546950D
:1005C000477002C0220F331F4A95E2F7252B208384
:1005D000660FFC0126852170622B668726852160C7
:1005E000268781E0089584E0089585E0089582E0FB
:1005F000089582E008956F927F929F92AF92BF928A
:10060000CF92DF92EF92FF920F931F93CF93DF93DE
:10061000FC018585869586958695877009F4A6C028
:1006200000E010E0EE24EA94C12C81E090E0A12CDF
:10063000912CB12CDB2CA085B1854C91348536955D
:10064000369536953770B801630F711DEC01062E93
:1006500002C0CC0FDD1F0A94E2F79E0120952423EF
:100660002C9300C000C00000A481B5812C91C485EA
:10067000C77030E0A90102C055954795CA95E2F7C9
:100680002585277009F452C06A2D792DFB2C3A017B
:1006900077249301062E02C0359527950A94E2F738
:1006A00020FD22C042855385A585A770A69F900195
:1006B000A79F300D1124400F511FDA01A20FB31F65
:1006C000EC902685269581F0AD2DCFE9DFE02197CE
:1006D000F1F700C00000AF5F268526954A2F50E055
:1006E00030E0421753078CF39C0102C0220F331FE6
:1006F0006A95E2F7B901A481B5814C9124852770F0
:1007000050E0DA0102C0B595A7952A95E2F79D0160
:1007100026233723232B79F3F3946F2D70E025855F
:10072000277030E0621773070CF4B3CFA085B18552
:100730004C9134853695369536953770030F111DDB
:100740009C0102C0220F331F0A95E2F7242B2C9341
:10075000C3940C2D10E025852695269526952770A7
:1007600030E0021713070CF466CF02C0EE24EA94BF
:100770008E2DDF91CF911F910F91FF90EF90DF9021
:10078000CF90BF90AF909F907F906F900895CF9340
:10079000DF93CDB7DEB7C054D1090FB6F894DEBFF2
:1007A0000FBECDBF0F2EFDE06F2EF02DFE01709617
:1007B000DF01262D1D922A95E9F78A8D80618A8FA7
:1007C0008DE0DE015D9601900D928A95E1F70F2E86
:1007D000FFE04F2EF02DFE013196DF01242D1D92FA
:1007E0002A95E9F78F85817082608F878FE0DE011F
:1007F0009A9601900D928A95E1F711E019AF6894ED
:10080000772471F87AAE0F2EF3E05F2EF02D5BAEF9
:100810006894BB24B2F8BCAE21961CAE1DAE1EAED1
:100820001FAE21974E018AE2880E911C6894AA247B
:10083000A2F80F2EFBE2CF2ED12CF02D0F2EFAE2D4
:10084000EF2EF12CF02D00E029E230E04BE250E0F9
:100850006AE270E0C4010E94CF001F926F921F9263
:100860008CE08F931F928BE08F931F928AE08F937F
:100870001F924F921F925F921F9286E08F931F925A
:1008800089E08F931F921F921F927F921F9285E0A3
:100890008F931F9288E08F931F928EE08F931F9209
:1008A0001F931F92BF921F9287E08F931F939F9277
:1008B0008F920E94FA000FB6F894DEBF0FBECDBF34
:1008C0006AE0C4010E94D70122E048E250E067E2FA
:1008D00070E0CE014D960E94C30520E045E250E055
:1008E00064E270E0CE014D960E94B30540E068E0FE
:1008F000CE014D960E945908CE014D960E94DD050D
:1009000084E191E09F938F930E94B40CBFEFE3EDDD
:10091000F0E3B150E040F040E1F700C00000CE014C
:100920004D960E94CD060F900F90E12CF12C0F2ECA
:10093000FDE38F2E912CF02D8C0E9D1E24E0820E57
:10094000911C412C512C0F2EF8E36F2EF1E07F2EDD
:10095000F02D05E311E00F2EF9E03F2EF02D689405
:10096000222423F8CE018A960E94FB028F3FD1F306
:1009700090E080319105B0F7FC01EC5CFF4F0C94E6
:10098000B40A1F930F930E94B40CEDE3F0E0EC0F58
:10099000FD1FEE0DFF1D10828FEFE81AF80A0F9071
:1009A0000F90E0CF1F930F930E94B40CEDE3F0E0A3
:1009B000EC0FFD1FEE0DFF1D81E080839FEFE91A14
:1009C000F90A0F900F90CECF1F930F930E94B40C93
:1009D000EDE3F0E0EC0FFD1FEE0DFF1D82E08083E4
:1009E000AFEFEA1AFA0A0F900F90BCCF1F930F9344
:1009F0000E94B40CEDE3F0E0EC0FFD1FEE0DFF1DC7
:100A000083E08083BFEFEB1AFB0A0F900F90AACF11
:100A10001F930F930E94B40CEDE3F0E0EC0FFD1F69
:100A2000EE0DFF1D84E08083EFEFEE1AFE0A0F90BB
:100A30000F9098CF1F930F930E94B40CEDE3F0E05A
:100A4000EC0FFD1FEE0DFF1D85E08083FFEFEF1A19
:100A5000FF0A0F900F9086CF1F930F930E94B40C44
:100A6000EDE3F0E0EC0FFD1FEE0DFF1D86E080834F
:100A70002FEFE21AF20A0F900F9074CF1F930F938B
:100A80000E94B40CEDE3F0E0EC0FFD1FEE0DFF1D36
:100A900087E080838FEFE81AF80A0F900F9062CFFB
:100AA0001F930F930E94B40CEDE3F0E0EC0FFD1FD9
:100AB000EE0DFF1D20829FEFE91AF90A0F900F90AB
:100AC00051CF1F930F930E94B40CEDE3F0E0EC0FB5
:100AD000FD1FEE0DFF1D3082AFEFEA1AFA0A0F90EC
:100AE0000F9040CFCE014D960E94CD06E42CF52C00
:100AF00039CFFE01FD967F01CE01C9966C01A42C71
:100B0000B52CD7018D917D01F60191916F0189136B
:100B100003C0FFEFAF1ABF0A1F928F937F926F92AD
:100B20000E94B40C0F900F900F900F90E814F904EE
:100B300041F724E0A216B10469F4ABE3B1E0BF933E
:100B4000AF930E94B40C0F900F906894EE24E2F8DB
:100B5000F12C08CF8AE491E00E94C80C6894EE243E
:100B6000E2F8F12CFFCEFC01718360835383428352
:100B7000822F87702481287F282B2483848582609C
:100B8000848780E008950F93FC0176836583508706
:100B900047832770220F220F220F8185877C282B05
:100BA0002187802F87700185087F082B0187848526
:100BB0008460848780E00F910895FC01248523FFE1
:100BC00014C026E031E03093670120936601309332
:100BD0006501209364013093630120936201909337
:100BE0005D0180935C0180E0089587E00895CF93D4
:100BF000DF93FC01A781B0854C912185277081E0AE
:100C000090E0EC0102C0CC0FDD1F2A95E2F79E01B7
:100C1000209524232C93A781B0854C91218526957E
:100C2000269526952770EC0102C0CC0FDD1F2A9572
:100C3000E2F79E01209524232C93A281B3817C911D
:100C4000248127704FE050E0EA0102C0CC0FDD1F85
:100C50002A95E2F79E01209527232C93A281B38148
:100C60003C9144814770262F22952F7001C0220F9E
:100C70004A95EAF7232B2C93A781B0853C912185D7
:100C8000269526952695277002C0880F991F2A95CC
:100C9000E2F7832B8C93D5E0DA95F1F70000A7817A
:100CA000B0854C918185869586958695877021E0E3
:100CB00030E0E90102C0CC0FDD1F8A95E2F7CE01DA
:100CC000809584238C93D5E0DA95F1F70000A2811A
:100CD000B3814C91848187702FE030E0E90102C03C
:100CE000CC0FDD1F8A95E2F7CE01809584238C938B
:100CF000A281B3819C9124812770862F8F7001C0BF
:100D0000880F2A95EAF7892B8C93A781B0854C919F
:100D10009185969596959695977021E030E0E9013A
:100D200002C0CC0FDD1F9A95E2F7CE01842B8C9385
:100D3000D5E0DA95F1F70000A781B0854C91818567
:100D40008695869586958770E90102C0CC0FDD1FD8
:100D50008A95E2F7CE01809584238C93D5E0DA95CD
:100D6000F1F700006150623080F48FE39FE101975A
:100D7000F1F700C0000083858F77838784858E7F9D
:100D8000848783858178838704C095ED9A95F1F7F0
:100D9000000080E0DF91CF910895FC01248523FFBE
:100DA00004C061E00E94F705089587E00895DC0122
:100DB0001C968C911C9783FFA5C06130B1F41996E5
:100DC0009C91199792959695969593701A968C91F9
:100DD0001A978770880F880F892B90E001974297A8
:100DE00008F092C09FEF940F68C06230F1F419963A
:100DF0009C91199792959695969593701A968C91C9
:100E00001A978770880F880F892B90E0019782319D
:100E1000910508F07BC08C5B9F4FFC010C94B40AD9
:100E200084E008959FE3940F48C0633021F519963C
:100E30009C91199792959695969593701A968C9188
:100E40001A978770880F880F892B90E0019782315D
:100E5000910508F05DC08A5A9F4FFC010C94B40ABA
:100E600084E008959BE0940F28C09FE0940F25C074
:100E700093E1940F22C019969C911997929596959B
:100E8000969593701A968C911A978770880F880F91
:100E9000892B90E0019782319105E0F588599F4FA9
:100EA000FC010C94B40A84E008959BE4940F05C0FF
:100EB0009FE4940F02C093E5940F615063701B96FA
:100EC0008C911B9760FB87F91B968C931B976695FB
:100ED0001C968C911C978E7F862B1C968C931C974E
:100EE0008FEF840F8F73880F1B964C911B9741785F
:100EF000482B1B964C931B97692F6068CD010E946D
:100F0000F705089587E0089583E0089583E0089544
:100F100083E0089583E00895DC011C962C911C97D2
:100F200023FF50C019962C91199722952695269546
:100F300023701A96EC91E770EE0FEE0FE22BF0E0C3
:100F40003197E231F10508F03FC0E658FF4F0C94AD
:100F5000B40A41E061E00E94D7060895FC013385A0
:100F6000331F3327331F24852170220F232B61E089
:100F7000213009F460E06F5F41E00E94D7060895D8
:100F8000DC011B963C911B97331F3327331F1C96A4
:100F90002C911C972170220F232B233069F01B9674
:100FA0002C911B97221F2227221F1C966C91617087
:100FB000660F622B6F5F01C060E06F5F41E00E94CF
:100FC000D706089587E0089583E00895CF93DF93CF
:100FD000FC01A781B0854C912185277081E090E0CC
:100FE000EC0102C0CC0FDD1F2A95E2F79E0120958F
:100FF00024232C93A781B0854C9121852695269595
:1010000026952770EC0102C0CC0FDD1F2A95E2F770
:101010009E01209524232C93A281B3817C9124816D
:1010200027704FE050E0EA0102C0CC0FDD1F2A9587
:10103000E2F79E01209527232C93A281B3812C9166
:101040003481377062956F7001C0660F3A95EAF788
:10105000622B6C93A781B0853C91218526952695BE
:101060002695277002C0880F991F2A95E2F7832BD7
:101070008C93D5E0DA95F1F70000A781B0854C910B
:101080008185869586958695877021E030E0B90147
:1010900002C0660F771F8A95E2F7CB018095842303
:1010A0008C9375ED7A95F1F7000080E0DF91CF9198
:1010B00008951F93CF93DF93EC01862F442319F0FB
:1010C000413029F011C19A85977F9A8703C09A858C
:1010D00098609A87482F50E0FA013197E231F10584
:1010E00008F004C1E457FF4F0C94B40A982F9F7185
:1010F0008295880F880F807C29852F73822B8987A2
:10110000969596958A85887F892B8A8711E023C0DA
:10111000982F9F718295880F880F807C29852F7367
:10112000822B8987969596958A85887F892B8A87D1
:1011300012E011C0982F9F718295880F880F807CD4
:1011400029852F73822B8987969596958A85887F26
:10115000892B8A8714E08C8581FFCAC08C8582FF29
:10116000C9C0EA81FB8140812C8127708FE090E02B
:10117000BC0102C0660F771F2A95E2F79B012095FC
:1011800024232083E881F98120813C81377002C0CB
:10119000880F991F3A95E2F7822B8083EF81F885BB
:1011A00040812985269526952695277081E090E037
:1011B000BC0102C0660F771F2A95E2F79B012095BC
:1011C00024232083ED81FE81408139853695369533
:1011D00036953770BC0102C0660F771F3A95E2F76B
:1011E0009B01242B2083EF81F8854081298527707E
:1011F000BC0102C0660F771F2A95E2F79B0120957C
:1012000024232083ED81FE8120813985377002C03F
:10121000880F991F3A95E2F7822B80838FE59AEE2B
:101220000197F1F700C0000060E3CE010E94E607DD
:101230008FE19EE40197F1F700C0000060E3CE016A
:101240000E94E6078FEE90E00197F1F700C00000E2
:1012500060E3CE010E94E6078FEE90E00197F1F780
:1012600000C0000060E2CE010E94E6078A858A8500
:1012700083FD02C060E201C064E2123011F014305C
:1012800009F46860CE010E94F70568E0CE010E9473
:10129000F70561E0CE010E94F7058A8584FF02C050
:1012A00066E001C064E08A8585FD6160CE010E9430
:1012B000F7056CE0CE010E94F7058C8588608C876D
:1012C0008A8580648A878A858F778A878B858E7FD7
:1012D0008B878B858F778B878C858E7F8C878B8593
:1012E00081788B8780E007C081E005C083E003C080
:1012F00085E001C086E0DF91CF911F910895CF93E3
:10130000DF93FC01848583FFC8C0838586958F7336
:1013100090E088970CF0C3C0A781B0854C912185DF
:10132000277081E090E0EC0102C0CC0FDD1F2A9510
:10133000E2F79E01242B2C93A781B0854C91218547
:101340002695269526952770EC0102C0CC0FDD1F4F
:101350002A95E2F79E01209524232C93A281B38144
:101360007C91248127704FE050E0EA0102C0CC0F4D
:10137000DD1F2A95E2F79E01209527232C93A28159
:10138000B3813C9144814770262F22952F7001C074
:10139000220F4A95EAF7232B2C93A781B0853C9125
:1013A0002185269526952695277002C0880F991FBE
:1013B0002A95E2F7832B8C93D5E0DA95F1F70000BC
:1013C000A781B0854C918185869586958695877095
:1013D00021E030E0E90102C0CC0FDD1F8A95E2F781
:1013E000CE01809584238C93D5E0DA95F1F7000047
:1013F000A281B3814C91848187702FE030E0E901B4
:1014000002C0CC0FDD1F8A95E2F7CE0180958423C0
:101410008C93A281B3818C91948197706F7001C07D
:10142000660F9A95EAF7682B6C93A781B0854C916B
:101430009185969596959695977021E030E0B90143
:1014400002C0660F771F9A95E2F7CB01842B8C932D
:1014500075E07A95F1F70000A781B0854C91818500
:101460008695869586958770E90102C0CC0FDD1FB1
:101470008A95E2F7CE01809584238C93D5EDDA9599
:10148000F1F70000938596959F5F9F73990F838571
:101490008178892B838780E003C087E001C080E0EA
:1014A000DF91CF9108950F931F93CF93DF93A09176
:1014B0005C01B0915D011C969C911C9793FF4DC0FF
:1014C00019969C91199792959695969593701A9660
:1014D0002C911A972770220F220F292B30E02150D0
:1014E00031092231310528F422563F4FF9010C947D
:1014F000B40A10E011C01AE00FC01CE00DC010E1EA
:101500000BC014E109C018E107C01EE105C010E2DC
:1015100003C018E201C018E08A30D9F41B960C9180
:1015200006950F73011770F4C0E0D0E060E280917F
:101530005C0190915D010E947F0921968C2F800FA4
:101540008117A0F380915C0190915D010E948C074E
:1015500004C0682FCD010E947F0980E090E0DF91F8
:10156000CF911F910F910895EE0FFF1F0590F491F9
:10157000E02D0994CF93DF938230910510F482E03F
:1015800090E0E0916001F091610120E030E0A0E0A6
:10159000B0E0309739F14081518148175907B8F0D0
:1015A0004817590771F482819381109729F0139697
:1015B0009C938E9312972CC090936101809360014D
:1015C00027C02115310531F04217530718F0A90142
:1015D000DB0101C0EF019A01BD01DF010280F3814F
:1015E000E02DD7CF21153105F9F0281B390B243018
:1015F000310580F48A819B816115710521F0FB0121
:101600009383828304C09093610180936001FE0103
:10161000329644C0FE01E20FF31F81939193225052
:101620003109398328833AC020915E0130915F01EE
:10163000232B41F4209102013091030130935F018B
:1016400020935E01209100013091010121153105A7
:1016500041F42DB73EB74091040150910501241B80
:10166000350BE0915E01F0915F01E217F307A0F402
:101670002E1B3F0B2817390778F0AC014E5F5F4FE8
:101680002417350748F04E0F5F1F50935F014093BA
:101690005E018193919302C0E0E0F0E0CF01DF9121
:1016A000CF910895CF93DF93009709F487C0FC0191
:1016B000329713821282C0916001D091610120970C
:1016C00081F420813181280F391F80915E01909132
:1016D0005F018217930779F5F0935F01E0935E0154
:1016E0006DC0DE0120E030E0AE17BF0750F4129667
:1016F0004D915C9113979D014115510509F1DA0156
:10170000F3CFB383A28340815181840F951F8A1741
:101710009B0771F48D919C911197840F951F0296F0
:101720009183808312968D919C91139793838283EA
:101730002115310529F4F0936101E09360013EC069
:10174000D9011396FC93EE9312974D915D91A40FDE
:10175000B51FEA17FB0779F480819181840F951FEB
:101760000296D90111969C938E9382819381139650
:101770009C938E931297E0E0F0E08A819B81009722
:1017800019F0FE01EC01F9CFCE01029628813981D2
:10179000820F931F20915E0130915F012817390756
:1017A00069F4309729F4109261011092600102C02F
:1017B00013821282D0935F01C0935E01DF91CF91BB
:1017C0000895A0E0B0E0E7EEFBE00C94710FEC01AF
:1017D000CB01209719F40E94BA0AB8C0FE01E60FA7
:1017E000F71F9E0122503109E217F30708F4ACC03D
:1017F000D9010D911C91119706171707B8F0053004
:10180000110508F49FC0A801445051094617570715
:1018100008F498C002501109061B170B019311938D
:101820006D937C93CF010E94520B8CC05B01A01A78
:10183000B10A4E01800E911EA0916001B09161012C
:10184000612C712C60E070E0109709F449C0A81574
:10185000B905C9F5ED90FC901197670142E0C40EFF
:10186000D11CCA14DB0478F147018A189B08640173
:1018700042E0C40ED11C1296BC9012971396AC9104
:10188000B5E0CB16D10440F0B282A383918280826E
:10189000D9018D939C9309C00E5F1F4F0E0D1F1D24
:1018A000F90111830083EB2DFA2F6115710531F0D9
:1018B000DB011396FC93EE93129744C0F093610101
:1018C000E09360013FC06D917C9111976616770699
:1018D00008F43B01BD0112960D90BC91A02DB4CF30
:1018E00060915E0170915F0168157905E9F46816F1
:1018F0007906D0F440910001509101014115510544
:1019000041F44DB75EB76091040170910501461B2B
:10191000570BE417F507C0F4F0935F01E0935E0105
:10192000F901918380830EC00E94BA0A7C0100975E
:1019300059F0A801BE010E94AB0CCE010E94520BCF
:10194000C70104C0CE0102C080E090E0CDB7DEB791
:10195000EEE00C948D0FFB01DC0102C001900D92B2
:1019600041505040D8F70895A0E0B0E0EAEBFCE029
:101970000C947D0FFE01359661917191AF018091BC
:101980006401909165010E94F50CE2E00C94990FBE
:101990000F931F93CF93DF93E0916401F091650162
:1019A000238121FF1BC0EC0100E010E089916091D0
:1019B000640170916501DB011896ED91FC91199716
:1019C000882331F00995892B89F30FEF1FEFEECFB4
:1019D0008AE00995892B11F4C80102C08FEF9FEFAF
:1019E000DF91CF911F910F910895ACE0B0E0EBEF44
:1019F000FCE00C946D0F7C016B018A01FC011782E5
:101A00001682838181FFBDC1CE0101964C01F70191
:101A10009381F60193FD859193FF81916F01882356
:101A200009F4ABC1853239F493FD859193FF81911F
:101A30006F01853229F4B70190E00E94DD0EE7CFF7
:101A4000512C312C20E02032A0F48B3269F030F49C
:101A5000803259F0833269F420612CC08D3239F024
:101A6000803339F4216026C02260246023C02860BE
:101A700021C027FD27C030ED380F3A3078F426FF1B
:101A800006C0FAE05F9E300D1124532E13C08AE089
:101A9000389E300D1124332E20620CC08E3221F47A
:101AA00026FD6BC1206406C08C3611F4206802C08C
:101AB000883641F4F60193FD859193FF81916F0182
:101AC0008111C1CF982F9F7D9554933028F40C5FDE
:101AD0001F4FFFE3F9830DC0833631F0833771F078
:101AE000833509F05BC022C0F801808189830E5FD5
:101AF0001F4F44244394512C540115C03801F2E087
:101B00006F0E711CF801A080B18026FF03C0652D07
:101B100070E002C06FEF7FEFC5012C870E94D20EEC
:101B20002C0183012C852F77222E17C03801F2E07B
:101B30006F0E711CF801A080B18026FF03C0652DD7
:101B400070E002C06FEF7FEFC5012C870E94C70EC7
:101B50002C012C852068222E830123FC1BC0832DA1
:101B600090E048165906B0F4B70180E290E00E9478
:101B7000DD0E3A94F4CFF50127FC859127FE819183
:101B80005F01B70190E00E94DD0E31103A94F1E060
:101B90004F1A51084114510471F7E5C0843611F011
:101BA000893639F5F80127FF07C06081718182818C
:101BB00093810C5F1F4F08C060817181882777FD7A
:101BC0008095982F0E5F1F4F2F76B22E97FF09C07A
:101BD00090958095709561957F4F8F4F9F4F2068AE
:101BE000B22E2AE030E0A4010E940F0FA82EA81800
:101BF00044C0853729F42F7EB22E2AE030E025C07C
:101C0000F22FF97FBF2E8F36C1F018F4883579F0A6
:101C1000B4C0803719F0883721F0AFC02F2F206172
:101C2000B22EB4FE0DC08B2D8460B82E09C024FFE7
:101C30000AC09F2F9660B92E06C028E030E005C08C
:101C400020E130E002C020E132E0F801B7FE07C039
:101C500060817181828193810C5F1F4F06C060811A
:101C6000718180E090E00E5F1F4FA4010E940F0F72
:101C7000A82EA818FB2DFF77BF2EB6FE0BC02B2D6C
:101C80002E7FA51450F4B4FE0AC0B2FC08C02B2D60
:101C90002E7E05C07A2C2B2D03C07A2C01C0752C0A
:101CA00024FF0DC0FE01EA0DF11D8081803311F487
:101CB000297E09C022FF06C07394739404C0822F4A
:101CC000867809F0739423FD13C020FF06C05A2CB8
:101CD000731418F4530C5718732C731468F4B70169
:101CE00080E290E02C870E94DD0E73942C85F5CF66
:101CF000731410F4371801C0312C24FF12C0B7013F
:101D000080E390E02C870E94DD0E2C8522FF17C017
:101D100021FF03C088E590E002C088E790E0B701AA
:101D20000CC0822F867859F021FD02C080E201C0EC
:101D30008BE227FD8DE2B70190E00E94DD0EA51435
:101D400038F4B70180E390E00E94DD0E5A94F7CF9B
:101D5000AA94F401EA0DF11D8081B70190E00E9480
:101D6000DD0EA110F5CF332009F451CEB70180E28A
:101D700090E00E94DD0E3A94F6CFF70186819781BC
:101D800002C08FEF9FEF2C96E2E10C94890FFC01CB
:101D90000590615070400110D8F7809590958E0F96
:101DA0009F1F0895FC016150704001900110D8F709
:101DB000809590958E0F9F1F08950F931F93CF933B
:101DC000DF93182F092FEB018B8181FD03C08FEF6B
:101DD0009FEF20C082FF10C04E815F812C813D812A
:101DE000421753077CF4E881F9819F012F5F3F4F31
:101DF00039832883108306C0E885F985812F0995EA
:101E0000892B29F72E813F812F5F3F4F3F832E8300
:101E1000812F902FDF91CF911F910F910895FA019B
:101E2000AA27283051F1203181F1E8946F936E7F19
:101E30006E5F7F4F8F4F9F4FAF4FB1E03ED0B4E00A
:101E40003CD0670F781F891F9A1FA11D680F791F4B
:101E50008A1F911DA11D6A0F711D811D911DA11D5C
:101E600020D009F468943F912AE0269F112430196C
:101E7000305D3193DEF6CF010895462F4770405D07
:101E80004193B3E00FD0C9F7F6CF462F4F70405DB6
:101E90004A3318F0495D31FD4052419302D0A9F711
:101EA000EACFB4E0A6959795879577956795BA950B
:101EB000C9F700976105710508959B01AC010A2ED1
:101EC00006945795479537952795BA95C9F7620FA8
:101ED000731F841F951FA01D08952F923F924F924C
:101EE0005F926F927F928F929F92AF92BF92CF92AA
:101EF000DF92EF92FF920F931F93CF93DF93CDB7B3
:101F0000DEB7CA1BDB0B0FB6F894DEBF0FBECDBF2A
:101F100009942A88398848885F846E847D848C84FB
:101F20009B84AA84B984C884DF80EE80FD800C8104
:101F30001B81AA81B981CE0FD11D0FB6F894DEBFE7
:0C1F40000FBECDBFED010895F894FFCF57
:101F4C000000680120000000000200000000530A9D
:101F5C0000000000202020636F6672652041434D15
:101F6C00452020200A312E30202030342F30392FBC
:101F7C0032303137002A20002575000A53656E680F
:101F8C006120436F7272657461000A53656E6861FB
:0C1F9C0020496E636F7272657461000072
:00000001FF
