S011000073644578616D706C652E7372656370
S11300000C944B000C9468000C9468000C946800E9
S11300100C9468000C9468000C9468000C946800BC
S11300200C9468000C9468000C9468000C946800AC
S11300300C9468000C9468000C9468000C9468009C
S11300400C9468000C9468000C9468000C9468008C
S11300500C9468000C9468000C9468000C9468007C
S11300600C9468000C94680089146C1380137A1340
S11300707A137A137A137A137A137A137A137A1314
S11300807A1369147A137A137A1317137A13801371
S11300907A137A136B1411241FBECFEFD8E0DEBF9E
S11300A0CDBF11E0A0E0B1E0EEEAF8E302C00590B4
S11300B00D92A83DB107D9F721E0A8EDB1E001C048
S11300C01D92AD3EB207E1F70E9459180C94551CDD
S11300D00C940000E0ECF0E080818823ECF7809140
S11300E0C60090E008958F929F92AF92BF92CF92F4
S11300F0DF92EF92FF920F934A015B019091C0004F
S11301009091C1009091C2009FEFE91621F091E017
S11301109E1508F47DC00F3F19F0033008F07AC033
S11301202F3F19F0253008F077C08F3F89F4809174
S1130130C200829586958695837021F0833009F4F8
S11301406FC005C08091C0008695817001C080E0B9
S11301509FEF89169906A906B90609F45FC0813094
S1130160B9F018F0843039F139C060E472E48FE0FA
S113017090E0A50194010E943219DA01C9010197A6
S1130180A109B1094C015D01C12CD12C76012EC00D
S113019060E874E88EE190E0A50194010E943219B0
S11301A0DA01C9010197A109B1094C015D01C12C12
S11301B0D12C76011BC060E072E18AE790E0A501D2
S11301C094010E943219DA01C9010197A109B10908
S11301D04C015D01C12CD12C760108C0812C912CDD
S11301E0A12CB12CC12CD12CE12CF12C282D392D92
S11301F04A2D5B2D6C2D7D2D8E2D9F2D08E00E94A8
S113020067192F702093C5008092C40080E00FC04E
S113021087E00DC085E00BC085E009C080E007C021
S11302208FEF88169806A806B80629F680E00F9185
S1130230FF90EF90DF90CF90BF90AF909F908F9002
S11302400895E1ECF0E080818860808380E0089587
S113025080E091E09093EC018093EB019093EA01AC
S11302608093E9019093E8018093E70180E0089589
S11302708091C00085FB882780F90895CF93C82F0B
S11302800E9438018823E1F3C093C60080E0CF9137
S113029008954115510551F0A62FB72FFC01840F85
S11302A0951F2D912193E817F907D9F708954F92D7
S11302B05F926F927F92AF92BF92CF92DF92EF9252
S11302C0FF920F931F93CF93DF93EC012A013B011D
S11302D0CAA4DBA4ECA4FDA4C416D506E606F7065E
S11302E009F44CC08C818823A1F15E018EE2A80E32
S11302F0B11C01E0A7019601B50189810E9437175D
S113030081113EC01C824A8D5B8D6C8D7D8D8E8DDE
S11303109F8DA8A1B9A1840F951FA61FB71FC8164A
S1130320D906EA06FB06A8F41B81123090F08A8DE8
S11303309B8DAC8DBD8DC80ED91EEA1EFB1E01E03F
S1130340A7019601B50189810E9437171150113018
S113035071F74114510461047104A1F001E0A30197
S11303609201BE01625D7F4F89810E94E416811172
S11303700BC04AA65BA66CA67DA607C080E005C09C
S113038081E003C080E001C081E0DF91CF911F9143
S11303900F91FF90EF90DF90CF90BF90AF907F9040
S11303A06F905F904F9008950F931F93CF93DF93B7
S11303B0EC018E9601E09A01AB01BC0189810E9497
S11303C0E416811151C0FE01E35DFD4F808190E090
S11303D0982F882731972081822B85359A4A09F0F6
S11303E045C0E55CF14080813197408150E060E098
S11303F070E0BA0155274427782B32978081482B27
S11304003196008110E0102F002720E030E0402BCF
S1130410512B622B732B7727463451446445710565
S113042039F17E9680813197408150E060E070E040
S1130430BA0155274427782B32978081482BCF5710
S1130440DF4F888190E0982F8827A0E0B0E0482B08
S1130450592B6A2B7B2B772781E046345144644522
S1130460710539F480E005C083E003C082E001C077
S113047080E0DF91CF911F910F910895009781F053
S1130480FC012081222371F026813781261737074A
S113049059F481810E94111680FF08C083E00895F9
S11304A089E0089589E0089589E0089580E0089539
S11304B02F923F924F925F926F927F928F929F9270
S11304C0AF92BF92CF92DF92EF92FF920F931F935E
S11304D0CF93DF93CDB7DEB72E970FB6F894DEBF78
S11304E00FBECDBF142FDC01ED91FC91119720813B
S11304F030E0205331092A30310548F441814A3330
S113050031F43296ED93FC93232B09F02DC3E09143
S1130510E401F091E501FE87ED87DB01ED93FC93A7
S1130520309709F423C38081882361F081810E947C
S1130530111680FD07C0112309F41AC382FD1AC3E2
S113054080E065C3ED85FE851082118280E00E9403
S1130550181680FD11C3112311F082FD0FC340E072
S113056050E0BA018D859E850E94D4018130B1F599
S1130570ED85FE85E051FE4F8081882309F400C398
S1130580ED85FE85E950FE4F8081ED85FE85EA50BC
S1130590FE4F408150E060E070E0BA0155274427E7
S11305A0782BED85FE85EC50FE4F8081482BED8540
S11305B0FE85EB50FE4F808190E0982F8827A0E0C5
S11305C0B0E02A013B01482A592A6A2A7B2AB3014E
S11305D0A2018D859E850E94D40103C0412C512C1B
S11305E03201833009F4CEC28111CEC2AD85BE85FD
S11305F0DA968C91DA9790E0982F8827D9962C91E7
S1130600822B8115924009F0C1C2ED85FE85EB5B1A
S1130610FF4F8080912C982C8824ED85FE85EC5B1F
S1130620FF4F8081882AA12CB12C81149104A1044C
S1130630B10429F5ED85FE85EB5AFF4F8081ED85E8
S1130640FE85EC5AFF4F8080912CA12CB12C5401D3
S113065099248824B82AED85FE85EE5AFF4F8081BF
S1130660882AED85FE85ED5AFF4F808190E0982F12
S11306708827A0E0B0E0882A992AAA2ABB2AED8517
S1130680FE85828E938EA48EB58EA6ADA3838FEF46
S11306908A0F823008F07CC213AD1283112309F44F
S11306A079C2812F90E09C01215031098223932348
S11306B0892B09F071C2E05CFF4F2080312C322C71
S11306C02224ED85FE8587AD282A31862086C10146
S11306D08F709927892B09F061C2EE5BFF4FC080B0
S11306E0D12CDC2CCC24ED85FE85EF5BFF4F808183
S11306F0C82AE12CF12CC114D104E104F10431F530
S1130700ED85FE85EF5AFF4F8081ED85FE85E05B28
S1130710FF4FC080D12CE12CF12C7601DD24CC24B8
S1130720F82AED85FE85E25BFF4F8081C82AED85BE
S1130730FE85E15BFF4F808190E0982F8827AC0114
S113074060E070E0C42AD52AE62AF72AED85FE8502
S113075085ADE82FF0E05E2F4427ED85FE8584AD5E
S1130760FA01E82BFA83E983309709F419C2B0E05F
S1130770A50194010E945A1969877A878B879C87FF
S1130780AF019A0140E050E02D833E834F835887A8
S1130790C101929582958F7089279F708927280FB0
S11307A0391F411D511DDA01C90129853A854B853F
S11307B05C85280F391F4A1F5B1F29833A834B83AB
S11307C05C83C216D306E406F50608F4EBC1C70140
S11307D0B601621B730B840B950B212F30E040E0B4
S11307E050E00E943219DA01C90121153105410591
S11307F0510509F4D9C1263F6FE03607410551057B
S113080010F411E001C012E0863F9F4FA105B1052D
S113081008F0D2C169017A01F2E0CF0ED11CE11CCB
S1130820F11CAD85BE855696CD92DD92ED92FC927B
S1130830599789819A81AB81BC81840D951DA61D30
S1130840B71DED85FE8586A397A3A0A7B1A78D81CB
S11308509E81AF81B885840D951DA61DB71D868F19
S1130860978FA0A3B1A31330C1F5232809F09EC12B
S1130870ED85FE85E35AFF4F2081ED85FE85E45A20
S1130880FF4F808190E0A0E0B0E0DC019927882749
S1130890B22BED85FE85E65AFF4F2081822BED8534
S11308A0FE85E55AFF4F208130E0322F2227A9012F
S11308B060E070E0842B952BA62BB72BED85FE858D
S11308C082A393A3A4A3B5A3CC0CDD1CEE1CFF1C34
S11308D0CC0CDD1CEE1CFF1C2DC0232809F468C1C0
S11308E029853A854B855C85820F931FA41FB51F0C
S11308F0ED85FE8582A393A3A4A3B5A3123029F4A6
S1130900CC0CDD1CEE1CFF1C15C0A3E0B0E0A7015D
S113091096010E945A19DC01CB01B695A7959795CB
S11309208795F1E0CF22DD24EE24FF24C80ED91EE2
S1130930EA1EFB1E2FEFC20E21E0D21EE11CF11CA9
S11309400B2EB9E0F694E794D794C794BA95D1F7EF
S1130950B02D8C149D04AE04BF0408F42BC18FEF9A
S11309609FEFDC01ED85FE8586879787A08BB18B91
S1130970DF011286138614861586133009F0D1C060
S11309801582E15AFF4F808190E0982F8827319794
S11309902081822BA3019201280F391F411D511D73
S11309A0FD01228B338B448B558B01E0BD01625DCD
S11309B07F4F81810E94E4168111B3C0ED85FE85CD
S11309C0E35DFD4F808190E0982F8827ED85FE85BB
S11309D0E45DFD4F2081822B85359A4A09F0A1C040
S11309E0AD85BE85D1962C91D197D0968C9190E00F
S11309F0A0E0B0E0DC0199278827B22BED85FE85C5
S1130A0026A5822B47A550E0542F442760E070E0D0
S1130A10842B952BA62BB72B82359245A146B14446
S1130A2009F07FC0ED85FE85EB5EFD4F2081ED85ED
S1130A30FE85EC5EFD4F808190E0A0E0B0E0DC013B
S1130A4099278827B22BED85FE85EE5EFD4F208128
S1130A50822BED85FE85ED5EFD4F408150E0542FE5
S1130A60442760E070E0842B952BA62BB72B8237AC
S1130A709247A144B14609F054C0ED85FE85E35E7A
S1130A80FD4F2081ED85FE85E45EFD4F808190E081
S1130A90A0E0B0E0DC0199278827B22BED85FE8524
S1130AA0E65EFD4F2081822BED85FE85E55EFD4FE0
S1130AB0408150E0542F442760E070E0842B952B54
S1130AC0A62BB72BED85FE8582879387A487B587F0
S1130AD0E75EFD4F2081ED85FE85E85EFD4F808158
S1130AE090E0A0E0B0E0DC0199278827B22BED85E7
S1130AF0FE85EA5EFD4F2081822BED85FE85E95E51
S1130B00FD4F408150E0542F442760E070E0842B77
S1130B10952BA62BB72BED85FE8586879787A08B13
S1130B20B18BAD85BE851C938091E2019091E30168
S1130B3001969093E3018093E20117969C938E9320
S1130B401697FD0112A613A614A615A61482809169
S1130B50D8019091D901A817B90721F41092D901AD
S1130B601092D80180E053C08BE051C08CE04FC09C
S1130B7080E04DC08AE04BC083E049C08AE047C0B2
S1130B808DE045C081E043C08DE041C08DE03FC0B1
S1130B908DE03DC08DE03BC08DE039C08DE037C0B5
S1130BA08DE035C08DE033C08DE031C08DE02FC0C5
S1130BB08DE02DC08DE02BC069017A01F2E0CF0EEB
S1130BC0D11CE11CF11CAD85BE855696CD92DD92FB
S1130BD0ED92FC92599789819A81AB81BC81840DF5
S1130BE0951DA61DB71DED85FE8586A397A3A0A719
S1130BF0B1A78D819E81AF81B885840D951DA61DF9
S1130C00B71D868F978FA0A3B1A313E02ECE2E9687
S1130C100FB6F894DEBF0FBECDBFDF91CF911F9109
S1130C200F91FF90EF90DF90CF90BF90AF909F9087
S1130C308F907F906F905F904F903F902F9008958A
S1130C40CF92DF92EF92FF92FC019A01AB01225006
S1130C50310941095109C688D788E08CF18C82E0BA
S1130C60C81AD108E108F1082C153D054E055F05A9
S1130C7068F4A281B0E00E945A19C6A0D7A0E0A4EB
S1130C80F1A46C0D7D1D8E1D9F1D03C060E070E0FE
S1130C90CB01FF90EF90DF90CF900895BF92CF9259
S1130CA0DF92EF92FF920F931F93CF93DF93EC01A8
S1130CB06A017B01423051056105710508F4C6C023
S1130CC04E895F89688D798DC416D506E606F706C8
S1130CD008F0C1C08881823009F44AC0833009F425
S1130CE06FC0813009F0BCC08601169507950C0DC4
S1130CF01D1DC801892F992786954E8D5F8D68A18A
S1130D0079A1480F591F611D711DCE010E94570121
S1130D108111AAC0F801F170EC0FFD1FB6A40F5F9A
S1130D201F4FC801892F992786954E8D5F8D68A125
S1130D3079A1480F591F611D711DCE010E945701F1
S1130D40811196C01170C00FD11F8EA56B2D70E05C
S1130D50782BC0FE09C0729562956F7067277F700B
S1130D60672780E090E08FC07F7080E090E08BC0C8
S1130D7077276F2D5E2D4D2D0E8D1F8D28A139A146
S1130D80400F511F621F731FCE010E945701811132
S1130D9073C0CC0CDD1CEE1CFF1CE894C0F881E091
S1130DA0D822EE24FF24FE01EC0DFD1D66A5FE01F4
S1130DB0EC0DFD1D87A570E0782B80E090E063C00A
S1130DC04E8D5F8D68A179A197018601689416F80C
S1130DD036952795179507951694D1F7400F511F0F
S1130DE0621F731FCE010E945701811149C0CC0CB0
S1130DF0DD1CEE1CFF1CCC0CDD1CEE1CFF1C8CEF60
S1130E00C82281E0D822EE24FF24F601BE96EC0F1E
S1130E10FD1F8281438150E060E070E0742F6627FB
S1130E2055274427682B818190E0982F8827A0E0DC
S1130E30B0E0842B952BA62BB72BFE01EC0DFD1DEA
S1130E4026A5822BBC01CD019F701DC061E070E01E
S1130E5080E090E018C061E070E080E090E013C0B2
S1130E606FEF7FEFCB010FC06FEF7FEFCB010BC0B4
S1130E706FEF7FEFCB0107C06FEF7FEFCB0103C0B4
S1130E806FEF7FEFCB01DF91CF911F910F91FF9017
S1130E90EF90DF90CF90BF900895EF92FF920F9361
S1130EA01F93CF93DF93EC018B017D836C834E8181
S1130EB05F8168857985413051056105710509F4C3
S1130EC093C0E881F98186899789A08DB18D4817EF
S1130ED059076A077B0708F089C041155105610568
S1130EE0710551F58081833049F442A153A164A175
S1130EF075A14115510561057105F1F41A861B862A
S1130F001C861D86808591850817190708F070C016
S1130F1082A193A1A4A1B5A19801329522952F7025
S1130F2023273F702327820F931FA11DB11D8E8796
S1130F309F87A88BB98B44C0E28080E1E89E700152
S1130F4011240E151F0518F1888199810E944E06FF
S1130F50AB01BC014F3F8FEF58076807780709F4CE
S1130F6049C0423051056105710508F445C0E88166
S1130F70F98186899789A08DB18D481759076A0729
S1130F807B07E0F50E191F090E151F05E8F64A87C1
S1130F905B876C877D87888199810E9420069801F0
S1130FA0329522952F7023273F702327DC01CB0134
S1130FB0820F931FA11DB11D8E879F87A88BB98BAC
S1130FC00F701127000F111F02951295107F102723
S1130FD0007F1027025D1F4F88819981080F191F18
S1130FE01B8B0A8B80E00BC082E009C082E007C043
S1130FF082E005C081E003C082E001C082E0DF91AD
S1131000CF911F910F91FF90EF9008954F925F92AF
S11310106F927F928F929F92AF92BF92CF92DF9204
S1131020EF92FF920F931F93CF93DF9300D000D0E2
S1131030CDB7DEB74C016A017B012801390142308A
S113104051056105710508F4ECC0FC018689978996
S1131050A08DB18D481759076A077B0708F0E3C0D4
S11310608081823009F472C0833009F494C08130E5
S113107009F0D2C05A01B694A794A40EB51EC501B6
S1131080892F99278695468D578D60A171A1480FA8
S1131090591F611D711DC4010E9457018111BDC0FA
S11310A0C5019170A7019601217033274427552764
S11310B029833A834B835C83C0FE0BC0F401E80FA1
S11310C0F91F46A54F7050E1459E90011124242B31
S11310D001C0242DF401E80FF91F26A78FEFA81AE9
S11310E0B80A81E0F4018483C501892F9927869584
S11310F0468D578D60A171A1480F591F611D711D47
S1131100C4010E945701811188C0F1E0BF222981E6
S11311103A814B815C81232B242B252B49F0689445
S113112013F876946794579447941694D1F709C0AA
S1131130F401EA0DFB1D26A5207F952D9F70422EFC
S1131140492AF401EA0DFB1D46A667C0452F562F18
S1131150672F7727F401868D978DA0A1B1A1480F41
S1131160591F6A1F7B1FC4010E945701811155C07A
S1131170CC0CDD1CEE1CFF1CE894C0F8F1E0DF226F
S1131180EE24FF24F401EC0DFD1D46A6F401EC0D44
S1131190FD1D57A642C0F401868D978DA0A1B1A173
S11311A0689416F876956795579547951694D1F7F0
S11311B0480F591F6A1F7B1FC4010E9457018111E8
S11311C02CC0CC0CDD1CEE1CFF1CCC0CDD1CEE1C5E
S11311D0FF1CFCEFCF22F1E0DF22EE24FF24F60116
S11311E0BE96E80DF91D438150E060E070E0742F75
S11311F0662755274427D401AC0DBD1D4427552728
S11312006627707F442A552A662A772A9E964C922E
S113121051826282738201C082E091E0F40194837E
S113122003C082E001C082E00F900F900F900F90F6
S1131230DF91CF911F910F91FF90EF90DF90CF90AE
S1131240BF90AF909F908F907F906F905F904F90E2
S113125008952F923F924F925F926F927F928F9256
S11312609F92AF92BF92CF92DF92EF92FF920F9331
S11312701F93CF93DF93EC012A013B0141155105E4
S11312806105710599F48A849B84AC84BD848114BE
S11312909104A104B104F9F08E899F89A88DB98DB8
S11312A088169906AA06BB06D8F41EC00E944E06EC
S11312B0623071058105910508F496C00E891F8975
S11312C0288D398D601771078207930708F491C040
S11312D05301420109C0812C912C5401839404C010
S11312E0812C912C54018394750164016894222407
S11312F021F8312C00E010E02FEFC21AD20AE20AE2
S1131300F20A8E899F89A88DB98DC816D906EA0676
S1131310FB0658F082E088169104A104B10408F495
S11313206CC0C22CD32CE02EF12EB701A601CE0145
S11313300E944E06611571058105910599F06F3F74
S11313402FEF72078207920709F45CC061307105C0
S11313508105910509F45AC0C814D904EA04FB04B0
S113136059F658C08C2C9D2CAE2CBF2C0FEF1FEFC0
S11313702FEF3FE0B701A601CE010E9406088111BC
S11313802CC0411451046104710459F00C2D1D2D1D
S11313902E2D3F2DB301A201CE010E94060881111A
S11313A01CC08A869B86AC86BD868E859F85A8894F
S11313B0B9898F3F2FEF9207A207B20781F10197F6
S11313C0A109B1098E879F87A88BB98B81E08D8392
S11313D04C2D3D2D2E2D9F2D2BC0813029F54FEF07
S11313E03FEF2FEF9FEF24C041E030E020E090E09A
S11313F01FC0462F372F282F1BC040E030E020E0CD
S113140090E016C0462F372F282F12C0462F372FB3
S1131410282F0EC040E030E020E090E009C04C2DC1
S11314203D2D2E2D9F2D04C041E030E020E090E0C2
S1131430642F732F822FDF91CF911F910F91FF9013
S1131440EF90DF90CF90BF90AF909F908F907F9060
S11314506F905F904F903F902F9008958F929F923E
S1131460AF92BF92CF92DF92EF92FF920F931F93AE
S1131470CF93DF93EC017B010C811D810F5F1F4F24
S11314800115110509F4EAC08E859F85A889B989DB
S11314900097A105B10509F4E3C068012FE0C22259
S11314A0DD24C114D10409F0C2C00196A11DB11DEF
S11314B08E879F87A88BB98B4A855B856C857D85D4
S11314C0411551056105710549F4E881F98180856B
S11314D091850817190708F0C5C0A9C0E881F981EA
S11314E0828190E001979801329522952F702327ED
S11314F03F70232782239323892B09F098C0CF01BF
S11315000E944E064B015C0182E088169104A104FE
S1131510B10408F4A9C0EFEF8E169E06AE06BE060F
S113152009F4A4C0E881F98186899789A08DB18DD9
S113153088169906AA06BB0608F46BC0EF2809F4BE
S113154097C04A855B856C857D85CF010E942909FA
S11315504B015C01611571058105910509F48AC08F
S1131560613071058105910509F486C06F3F2FEF45
S113157072078207920709F481C040E050E0BA0183
S1131580888199810E94570181117AC0888199814B
S1131590FC01BE96825D9D4F1192E817F907E1F7B1
S11315A0E880F980B501A401C7010E942006F70173
S11315B062A773A784A795A7F12CEE24E39418C01F
S11315C0E48240E050E0BA01888199810E94570189
S11315D0811158C0E881F98182A593A5A4A5B5A578
S11315E00196A11DB11D82A793A7A4A7B5A7F39443
S11315F0E881F9818281F81618F382A593A5A4A540
S1131600B5A58F199109A109B10982A793A7A4A728
S1131610B5A78A869B86AC86BD86B501A401888160
S113162099810E9420066E877F87888B998B1D8302
S11316300C83CC0CDD1CCC0CDD1CCC0CDD1CCC0CCC
S1131640DD1CCC0CDD1CFEE2CF0ED11C88819981FF
S1131650C80ED91EDB8ACA8A80E015C084E013C094
S113166084E011C084E00FC082E00DC081E00BC0B3
S113167084E009C087E007C082E005C081E003C0C0
S113168081E001C081E0DF91CF911F910F91FF9024
S1131690EF90DF90CF90BF90AF909F908F90089580
S11316A02F923F924F925F926F927F928F929F926E
S11316B0AF92BF92CF92DF92EF92FF920F931F935C
S11316C0CF93DF9300D000D0CDB7DEB73C017B01D0
S11316D0DB018C918F3211F08C3519F4BFEFEB1ACA
S11316E0FB0AF3011682178210861186D7018C91AA
S11316F0803248F460E070E0C3010E944D07F301BA
S1131700138A128A4BC16894BB24B5F8A12C812C8E
S11317106894332433F8212C00E03A82922C7C82A2
S11317206B82F7014B815C81CF0121912F32E1F370
S11317302C35D1F35C834B83DA015496CD90DC9045
S11317405597F6019601255F3F4FB192E217F307D3
S1131750E1F75C834B83DC016A2C782C6A2D782DAD
S1131760432C522C0983AC01EB80FC806F5F7F4FCC
S11317701D91113208F4F0C01F3209F4E5C01C3584
S113178009F4E2C01E3209F4CBC06414750408F0F5
S1131790BBC00CC0E981EE0FEE0FE9836A80792C9F
S11317A00F2EFBE04F2EF02D512CE0CF11230CF027
S11317B0BDC0F981F360F983E12FF0E0E256FF4FF9
S11317C01081B4C08191882309F4B8C090E028172F
S11317D03907C1F786E0E2C029812260298308C065
S11317E08FE9810F8A3120F48981816089831052C5
S11317F0F601E60DF71D1083F30131963F01B6CFD4
S1131800672809F483C0D6012C91253E11F4E5E044
S1131810EC93F8E04F16510419F4990F990F99833A
S113182099819370913009F4806119811C7014308E
S113183009F48860D6011B968C936A2D782D8B81D0
S11318409C810E944D07811197C06B807C80F301BD
S11318504685578560897189808191810E945701ED
S113186081118CC0D3015296CD90DC905397F60130
S11318709081992309F48BC0938593FD11C05496EC
S11318806D917C915597DB019601255F3F4F04C014
S1131890E217F30709F468C041919D914917C1F318
S11318A06A2D782DC3010E942E0A882381F266C016
S11318B092FF2EC084E072C0D6011B968C911B97B8
S11318C084FF28C055968C91559790E0982F8827CF
S11318D054962C91822BA0E0B0E0DC019927882754
S11318E0F601438D50E0542F4427228D422B60E0B3
S11318F070E0842B952BA62BB72BEB81FC81868380
S11319009783A087B1870DCF86E048C086E046C0A4
S113191085E044C085E042C086E040C086E03EC029
S1131920F8E04F16510409F435CFF6CF212F30E0FB
S11319302232310599F3E0E1F1E044CF8FEB810FDE
S11319408A3108F449CF4CCFFC82EB827A01E60E4F
S1131950F71E9981802F54CFFC82EB827A01E60E28
S1131960F71E998184E04CCF7C826B82DB011B964D
S11319709C9192FFA1CF12C06B807C80D3015496BE
S1131980ED91FC9155979385843041F491CFD30127
S11319905496ED91FC91559793858ACF0F900F90B3
S11319A00F900F90DF91CF911F910F91FF90EF90C7
S11319B0DF90CF90BF90AF909F908F907F906F906B
S11319C05F904F903F902F90089581111DC0E0913A
S11319D0E401F091E501309761F08091D801909194
S11319E0D901E817F90721F41092D9011092D8010E
S11319F010826115710511F0FB0110827093E501ED
S1131A006093E40180E008958BE008952F923F9263
S1131A104F925F926F927F928F929F92AF92BF92FA
S1131A20CF92DF92EF92FF920F931F93CF93DF93A6
S1131A30CDB7DEB7AD970FB6F894DEBF0FBECDBFFE
S1131A404C017CA36BA3042FDC011D921C92B42FC8
S1131A50BF713B2E4E71BE016F5F7F4FCE018396E7
S1131A600E945802182FCE0147969E8B8D8B111120
S1131A7038C26BA17CA146970E94500B182FAB88EB
S1131A80BC88811132C2A114B10409F42DC2809121
S1131A90D8019091D901009719F129813A818217CF
S1131AA0930709F5C090DA01D090DB01E090DC01E6
S1131AB0F090DD018F819885A985BA85C816D9066D
S1131AC0EA06FB0699F42091DE013091DF018D8155
S1131AD09E812817390709F42EC280E090E008C0DF
S1131AE081E090E005C080E090E002C080E090E0FA
S1131AF0892B09F02CC212E125C28091E00190915A
S1131B00E1018115914009F022C21BC2112309F49D
S1131B104DC0143009F025C28091D8019091D901AB
S1131B20892B09F019C260E070E0CE0101960E9491
S1131B304D07182F811132C04F85588969897A89D8
S1131B4089819A810E945701182F811127C0EB893E
S1131B50FC898081853E09F4CDC1882309F4CAC17A
S1131B6061E070E0CE0101960E942E0A182F8823AE
S1131B7019F314C08B899C89FC019C01205E3F4FA2
S1131B801192E217F307E1F76D897E894BE050E08B
S1131B900E944901E981FA8181E08483F32DF86090
S1131BA03F2EAB88BC88112349F0DBC1D5011B96BD
S1131BB08C91817109F0AAC102FDAAC133FECCC087
S1131BC0F50116861786108A118A1386148E158ECF
S1131BD0168E178E458950E0542F44278489482B4C
S1131BE060E070E0BA0155274427838D90E0982F78
S1131BF08827228D822BA0E0B0E02A013B01482AED
S1131C00592A6A2A7B2A128E138E148A158A89818C
S1131C109A819EA38DA381E0ADA1BEA114968C935D
S1131C201497411451046104710409F495C09A96FF
S1131C308D919D910D90BC91A02D8AA79BA7ACA7D7
S1131C40BDA7B2E04B1651046104710408F462C1EB
S1131C50EDA1FEA186899789A08DB18D48165906FC
S1131C606A067B0608F058C1242C5FA268A679A6F0
S1131C70422D5FA168A579A58DA19EA10E944E0663
S1131C806B017C01611571058105910509F442C060
S1131C90613071058105910509F440C16F3F2FEF53
S1131CA072078207920709F43BC100E010E0980133
S1131CB0422D5FA168A579A58DA19EA10E94060869
S1131CC0182F81114EC1EDA1FEA186859785A089AB
S1131CD0B1898F3FFFEF9F07AF07BF0759F0019608
S1131CE0A11DB11DEDA1FEA186879787A08BB18BA5
S1131CF021E02583EDA1FEA186899789A08DB18D70
S1131D00C816D906EA06FB0628F42C2CDFA2E8A69E
S1131D10F9A6AECF89819A81B301A201415051093C
S1131D2061097109DC011A964D935D936D937C935F
S1131D301D974AA55BA56CA57DA50E945701182F88
S1131D4009C0F501838584FDEDC001FF05C080FD58
S1131D50EBC002C0111105C133FE03C0F32DF062C4
S1131D603F2E09811A81F80182A593A5A4A5B5A5E2
S1131D70F401828F938FA48FB58FB78EA68E232DF7
S1131D8030E02E7F4091D8015091D90104171507F6
S1131D9009F0E4C0C090DA01D090DB01E090DC01EE
S1131DA0F090DD018F819885A985BA85C816D9067A
S1131DB0EA06FB0609F0D2C06091DE017091DF01F2
S1131DC08D819E816817790709F0C8C01AC01093E5
S1131DD0D9010093D8018F819885A985BA8580930C
S1131DE0DA019093DB01A093DC01B093DD018D81D6
S1131DF09E819093DF018093DE011092E1011092A5
S1131E00E001232B51F08091E0019091E101892BB5
S1131E1009F08CC080E091E005C08091E0019091D0
S1131E20E10101969093E1018093E00181E090E06B
S1131E30D40191969C938E93909714963C92F501BD
S1131E40858990E0982F88272489822BA0E0B0E030
S1131E50DC0199278827438D50E0542F4427228D95
S1131E60422B60E070E0842B952BA62BB72BF4015A
S1131E7086879787A08BB18BD5015F962C915F974E
S1131E805E968C9190E0A0E0B0E0DC019927882771
S1131E90B22BF501248D822B458D50E0542F44271D
S1131EA060E070E0842B952BA62BB72BF40182877E
S1131EB09387A487B587D40116821782108611866A
S1131EC0168A178A108E118EE981FA811196FC9375
S1131ED0EE938681978113969C938E93129710E0CC
S1131EE040C0AB88BC8801C016E0802F8C7109F01B
S1131EF00DCE30CF4F85588969897A8989819A8135
S1131F000E945701182F811149CE34CE17E029C001
S1131F1018E027C012E025C012E023C012E021C05F
S1131F2011E01FC014E01DC017E01BC0F40111A292
S1131F3010A212E016C0832D8E7F09F4DECD10E1CD
S1131F4001C010E1802F8C7109F0E0CD0AC0802F10
S1131F508C7109F0DBCDF5CE12E103C0452B31F7CE
S1131F6036CF812FAD960FB6F894DEBF0FBECDBF2E
S1131F70DF91CF911F910F91FF90EF90DF90CF9061
S1131F80BF90AF909F908F907F906F905F904F9095
S1131F903F902F9008952F923F924F925F926F92AD
S1131FA07F928F929F92AF92BF92CF92DF92EF92E5
S1131FB0FF920F931F93CF93DF93EC015B017A01A0
S1131FC06901F901118210826A817B81888199817A
S1131FD00E943E0281117AC18C8188230CF473C162
S1131FE081FF73C18A859B85AC85BD85AC01BD012C
S1131FF04E0D5F1D611D711D481759076A077B0748
S113200008F44BC1E114F10409F447C18E819F81A6
S1132010A885B985AC01BD01517066277727452B8A
S1132020462B472B09F0F1C0E881F9811281115048
S1132030AC01BD01032E39E0769567955795479518
S11320403A95D1F7302D1423F1F5892B8A2B8B2B5C
S1132050A1F46E857F85888999896115710581054B
S11320609105C1F440E050E0BA01CF010E94290972
S11320706E877F87888B998B07C04A895B896C89B7
S11320807D89CF010E94290961157105810591059A
S113209009F403C1613071058105910529F48C812E
S11320A080688C8382E012C16F3FFFEF7F078F0748
S11320B09F0729F48C8180688C8381E007C16A8B37
S11320C07B8B8C8B9D8BE881F98142A553A564A5FC
S11320D075A58E899F89A88DB98D481759076A07F8
S11320E07B0769F440E050E0BA01CF010E94570138
S11320F0882329F08C8180688C8381E0E7C0288064
S113210039804A895B896C897D89C1010E942006D6
S1132110611571058105910529F48C8180688C8392
S113212082E0D4C02B013C01410E511C611C711C86
S11321304701892C992486948114910409F441C09F
S1132140F1014281242F30E0C401810F911D281731
S1132150390718F44901811A9108082DA301920145
S1132160B501F10181810E943717882329F08C8100
S113217080688C8381E0AAC0E881F98182A593A557
S1132180A4A5B5A584199509A609B709A40160E019
S113219070E084179507A607B70778F4982F882767
S11321A0990FB501680F791F40E052E0CF018E9678
S11321B00E944901E881F9811482982C8824990CA1
S11321C053C04E815F81688579858A859B85AC85FE
S11321D0BD85481759076A077B0798F040E050E02F
S11321E0BA01C1010E945701882329F08C818068BB
S11321F08C8381E06BC0E881F98142A653A664A672
S113220075A64E8A5F8A688E798E8E819F819170C1
S113221020E032E0281B390B47012E153F0508F456
S113222049014E895F89688D798D888199810E94E1
S11322305701882329F08C8180688C8381E046C013
S11322408E819F81A885B9859170AA27BB278E9618
S113225028813981A401B501820F931F0E9449018D
S1132260E881F98131E03483A80CB91C8E819F8107
S1132270A885B985880D991DA11DB11D8E839F83E5
S1132280A887B987F60180819181880D991D918372
S11322908083E818F90809F0B9CE8E819F81A8855A
S11322A0B9854A855B856C857D85481759076A071A
S11322B07B0720F48A879B87AC87BD878C818062EB
S11322C08C8380E003C082E001C087E0DF91CF917E
S11322D01F910F91FF90EF90DF90CF90BF90AF9040
S11322E09F908F907F906F905F904F903F902F9032
S11322F008950F93CF93DF93EC016A817B818881EA
S113230099810E943E02982F811194C08C8185FF8F
S113231091C04A8D5B8D6C8D7D8D888199810E94E1
S11323205701982F811186C0EE8DFF8D83858062C1
S113233083878A85848F8B85858F8C85868F8D8511
S1132340878F8E85828F8F85838F8889848B8989F7
S1132350858B168A178A108E118E8C818F7D8C83C3
S1132360E881F98181E084830990D881C02D40E01F
S113237050E0BA01CE010E945701982F81115AC032
S11323808881833009F04CC08D81882309F448C0CA
S11323901AA61BA61CA61DA6BE01625D7F4FFB01EB
S11323A0CE01825D9D4F1192E817F907E1F785E5AB
S11323B0FE01E45DFD4F80838AEA3196808382E5E5
S11323C08EA78FA781E688AB91E499AB22E77B9730
S11323D020833196208331969083319680833E8585
S11323E02F85988989893196308331962083319657
S11323F09083319680833A852B859C858D85319693
S113240030833196208331969083319680832A8954
S11324103B894C895D8901E089810E9437171D82BF
S113242040E050E060E089810E94A11791E08111B1
S113243001C090E0892FDF91CF910F910895CF9340
S1132440DF9300D000D01F92CDB7DEB7FB018B83A2
S11324509E012F5F3F4F41E050E0BE016D5F7F4F13
S1132460CF010E94CB0F89819A81019719F481E0F1
S113247090E002C08FEF9FEF0F900F900F900F909E
S11324800F90DF91CF910895EF92FF920F931F93D6
S1132490CF93DF93FC017B018081882399F08F0126
S11324A00F5F1F4FC0E0D0E0B7010E941F128F3FA3
S11324B02FEF920759F02196F80181918F01811134
S11324C0F3CF03C080E090E001C0CE01DF91CF9153
S11324D01F910F91FF90EF9008952F923F924F928A
S11324E05F926F927F928F929F92AF92BF92CF92A0
S11324F0DF92EF92FF920F931F93CF93DF93CDB7A9
S1132500DEB764970FB6F894DEBF0FBECDBF69A4E3
S11325107AA42BA43CA49E01235D3F4F3A8B298BC4
S113252081010F5F1F4FD1018C91882309F4DFC112
S1132530812C912CC12CD12C08C081010F5F1F4F1D
S1132540F1018081882309F4D4C1853249F0B301B3
S11325500E941F128F3FFFEF9F0709F0C0C1DDC12A
S1132560D1011196BC90B0E3BB1208C0F1013396BF
S1132570D1011296BC90552453940FC0BDE2BB16F2
S113258021F0F1013296512C08C0F1013396D101AA
S11325901296BC906894552451F880ED8B0D8A30C6
S11325A0E0F400E010E02B2DC801880F991F000F04
S11325B0111F000F111F000F111F080F191F020F09
S11325C0111D00531109CF0101961C01208130ED2A
S11325D0320F3A3030F4FC01E7CF1F0100E010E085
S11325E001C0B22E8B2D8F7D8C3449F4B52DB4608F
S11325F05B2EF101B08091012F5F3F4F1901BB2089
S113260009F45FC18FE98B0D8A3118F430EE3B0D6C
S113261001C03B2D832F90E0FC01E254F109E73126
S1132620F10508F067C0EC5CFF4F0C945419E9897C
S1132630FA89A080B180AF014E5F5F4F5A8B498BFE
S1132640D5018C91882359F0F5013196E12CF12CB8
S1132650BFEFEB1AFB0A81918111FACF02C0E12C82
S1132660F12C51FC18C0C7010196E016F106B0F434
S1132670812C912CB30180E20E941F12880E991EB6
S1132680EFEFEE1AFE0AE016F106A0F37801FFEF71
S1132690EF1AFF0A06C0812C912C03C07C01812C07
S11326A0912CB301C5010E944412880E991EE016B4
S11326B0F10660F4B30180E20E941F12880E991E95
S11326C02FEFE21AF20AE016F106A0F38F3F3FEF74
S11326D0930709F0EDC021C109891A890E5F1F4FC4
S11326E0B301A989BA898C910E941F124C011A8BDB
S11326F0098BDEC0B3018B2D0E941F124C01D8C080
S113270052FE0FC02AE001C022E0E989FA89608103
S11327107181828193813496FA8BE98B343459F533
S11327201EC0343479F4E989FA89608171819F018A
S11327302E5F3F4F3A8B298B882777FD8095982F02
S11327402AE00DC02AE0E989FA8960817181AF012C
S11327504E5F5F4F5A8B498B80E090E00CC0992309
S113276054F490958095709561957F4F8F4F9F4F4E
S1132770552D5860552EDE0111966D01812C912C3A
S113278030E040E050E0EB2D5801052D7C8A6B8A47
S113279029013A011E2FA30192010E943219F62F3A
S11327A0E62F622F732F842F952FFA3030F01837CD
S11327B011F4E7E201C0E7E0EF0F7401BFEFEB1A99
S11327C0FB0AE05DD601ED936D016115710581058C
S11327D0910531F0B0E1EB16F10441F04701DBCF94
S11327E0502E85016B887C88C70105C0502E850159
S11327F06B887C88C70153FE0CC07401E2E0EE0EC6
S1132800F11CE1E0F0E0EC0FFD1FE80FF91F2DE2F1
S1132810208350FE05C00F2EF0E34F2EF02D03C091
S11328206894442445F851FC17C047013FEF831ACC
S1132830930AE016F10608F465C0C12CD12C0FC030
S11328404FEFA41AB40AA016B10608F454C0480104
S11328505FEF851A950A03C04701C12CD12CAA2425
S1132860A394B12CAC0EBD1EAE0CBF1C81E0E81AC3
S1132870F108B301D5018E915D010E941F12C80EAB
S1132880D91EE114F10491F78016910660F4B301A6
S113289080E20E941F12C80ED91EBFEF8B1A9B0A3A
S11328A080169106A0F38F3FEFEF9E07B1F146012A
S11328B0C80CD91CFFEF8F169F0609F03ECEC40149
S11328C02CC02FEF8216920611F0C60126C0C40157
S11328D024C028E001C020E152FC17CF34CF3FEFE1
S11328E0C31AD30A180188248394912C26CEC12CB0
S11328F0D12CC60112C0B301842D0E941F12C80E30
S1132900D91E9ECFB301842D0E941F126C01570162
S113291097CF52FCF9CE22E016CF64960FB6F89406
S1132920DEBF0FBECDBFDF91CF911F910F91FF90FE
S1132930EF90DF90CF90BF90AF909F908F907F905B
S11329406F905F904F903F902F9008950F931F9337
S1132950CF93DF93EB018C010E942E19F801819330
S11329608F0121972097C1F7DF91CF911F910F918C
S11329700895CF93DF931F92CDB7DEB72A9A61E013
S113298070E0CE0101960E94A6140F90DF91CF91C2
S113299008950F931F93CF93DF931F92CDB7DEB7A4
S11329A008E813E161E070E0CE0101960E94A614EC
S11329B089818F3F59F08FE891E00197F1F700C0CA
S11329C00000015011090115110561F781E090E043
S11329D0012B11F480E090E00F90DF91CF911F91D3
S11329E00F9108950F931F93CF93DF931F92CDB749
S11329F0DEB72A9861E070E0CE0101960E94A61429
S1132A000E94C9148C01009719F40E94B91402C0E1
S1132A1001E010E0C8010F90DF91CF911F910F9159
S1132A200895CF92DF92EF92FF920F931F93CF936B
S1132A30DF9300D0CDB7DEB77C016B0108EE13E065
S1132A4061E070E0CE0101960E94A61489818F3F57
S1132A5059F48FE891E00197F1F700C000000150AC
S1132A6011090115110561F789818E3F69F4B601D9
S1132A70C7010E94A61462E070E0CE0101960E9494
S1132A80A61481E090E002C080E090E00F900F90E7
S1132A90DF91CF911F910F91FF90EF90DF90CF9036
S1132AA008950F931F93CF93DF93EB018C01F801EB
S1132AB081918F010E942B1921972097C1F7DF91F3
S1132AC0CF911F910F910895DF92EF92FF920F9390
S1132AD01F93CF93DF93CDB7DEB727970FB6F89444
S1132AE0DEBF0FBECDBF182F042FF52EE62ED72E36
S1132AF0882354F440E050E0BA0187E30E9464154F
S1132B00823008F043C01F770E94B9140E94F21467
S1132B10892B41F1812F80648A83DB82EC82FD82E0
S1132B200E83112351F11830F9F081E08F8366E0B0
S1132B3070E0CE0102960E9451151C3031F461E020
S1132B4070E0CE0101960E94A6141AE061E070E0E4
S1132B50CE0101960E94A61489818823BCF41150E9
S1132B60A9F714C08FEF12C087E88F8366E070E086
S1132B70CE0102960E945115E8CF85E98F8366E065
S1132B8070E0CE0102960E945115DFCF27960FB652
S1132B90F894DEBF0FBECDBFDF91CF911F910F918F
S1132BA0FF90EF90DF900895FF920F931F93CF93C0
S1132BB0DF9300D0CDB7DEB78C01F62E0E94C91486
S1132BC0009739F1F98261E070E0CE0101960E942C
S1132BD051158DEFF816D9F060E072E0C8010E943B
S1132BE0511562E070E0CE0101960E94A61461E0E6
S1132BF070E0CE0101960E94A61489818F7131E0A4
S1132C0020E0853009F030E0832F922F02C081E06C
S1132C1090E00F900F90DF91CF911F910F91FF9053
S1132C200895811103C080910E01089581E00895F3
S1132C30DF92EF92FF920F931F93CF93DF9300D015
S1132C4000D0CDB7DEB7182F0E9420198CB5836051
S1132C508CBD111105C0F0900E01F1FCA8C002C09A
S1132C60FF24F3942A9A1AE061E070E0CE01019601
S1132C700E94A6141150C1F740E050E0BA0180E070
S1132C800E946415813009F08BC04AEA51E060E08B
S1132C9070E088E00E9464158130D9F564E070E04A
S1132CA0CE0101960E94A6148B81813009F078C070
S1132CB08C818A3A09F074C008EE13E040E050E0D9
S1132CC060E070E489EA0E946415882361F08FE96A
S1132CD09FE00197F1F700C00000015011090115B0
S1132CE0110561F75DC0012B09F45AC040E050E0C2
S1132CF0BA018AE30E946415811152C064E070E055
S1132D00CE0101960E94A614898186FD4CC084E000
S1132D104BC040E050E0BA0189EA0E946415823059
S1132D2040F40F2EF9EAEF2EF02D6894DD24D1F84B
S1132D3004C0EE24E394DD24D39408EE13E040E0D1
S1132D4050E0BA018E2D0E946415882361F08FE94A
S1132D509FE00197F1F700C000000150110901152F
S1132D60110569F71DC0012BD9F040E052E060E085
S1132D7070E080E10E946415811112C0D092E601D6
S1132D80DD2019F01F2D1E7F02C01F2D116010932E
S1132D900E010E94B9148CB58C7F8CBDF12E07C036
S1132DA01092E601F2CF8CE08093E601EBCF8F2DF9
S1132DB00F900F900F900F90DF91CF911F910F9173
S1132DC0FF90EF90DF9008950F93CF93DF93EB0183
S1132DD0811144C080910E0180FD42C0002309F49A
S1132DE041C08091E60183FD09C0012E19E0220F44
S1132DF0331F441F551F1A95D1F7102D013081F44C
S1132E00BA01A90181E10E946415811120C060E02A
S1132E1072E0CE010E941115892BC9F000E017C0A1
S1132E20BA01A90182E10E946415811110C060E019
S1132E3072E0CE010E941115892B19F0DE5F01505A
S1132E40B1F740E050E0BA018CE00E9464150E94A2
S1132E50B91481E0011107C080E005C083E003C01C
S1132E6083E001C084E0DF91CF910F910895CF9268
S1132E70DF92EF92FF920F93CF93DF93EB016901FF
S1132E807A0181114FC080910E0180FD4DC082FDF9
S1132E904DC0002309F44CC08091E60183FD09C0B4
S1132EA00B2EB9E0CC0CDD1CEE1CFF1CBA95D1F73F
S1132EB0B02D013079F4B701A60188E10E946415B0
S1132EC0811129C06EEFCE010E94D415892B19F10E
S1132ED000E021C0867039F0402F50E060E070E0DF
S1132EE087E90E946415B701A60189E10E9464156F
S1132EF0811111C06CEFCE010E94D415892B19F0F9
S1132F00DE5F0150B9F76DEF80E090E00E94D415C8
S1132F10892B09F401E00E94B91481E0011109C070
S1132F2080E007C083E005C083E003C082E001C005
S1132F3084E0DF91CF910F91FF90EF90DF90CF90DD
S1132F400895CF92DF92EF92FF920F931F93CF9346
S1132F50DF93CDB7DEB760970FB6F894DEBF0FBE30
S1132F60CDBF8A01811193C080910E0180FD91C073
S1132F70613071F020F0633009F473C07DC00E94A9
S1132F80F214892B09F47AC00E94B91410E07BC0B2
S1132F9040E050E0BA0189E00E946415811170C0DC
S1132FA060E170E0CE0101960E941115892B09F4AD
S1132FB069C0898182958695869583708130E1F414
S1132FC02A8530E02F5F3F4F898590E0982F88272E
S1132FD0820F931FA0E0B0E0072E7AE0880F991FBC
S1132FE0AA1FBB1F7A95D1F7702DF80180839183B6
S1132FF0A283B38310E047C0498542954695469520
S11330004370888550E0F4E08F9F400D511D1124DA
S11330104F5F5F4F8F81837090E0982F8827990FBF
S1133020990F480F591F60E070E09E819F708B8557
S1133030881F8827881F890F9A859370990F890F95
S113304087506A017B0104C0CC0CDD1CEE1CFF1C04
S11330508A95D2F7F801C082D182E282F38210E02D
S113306012C080E890E0A0E0B0E0FA018083918390
S1133070A283B38310E007C014E005C011E003C0CD
S113308011E001C011E00E94B914812F03C083E054
S113309001C083E060960FB6F894DEBF0FBECDBFCB
S11330A0DF91CF911F910F91FF90EF90DF90CF9020
S11330B00895CF93DF93CDB7DEB7CB51D3400FB68E
S11330C0F894DEBF0FBECDBFFE01ED5AFD4FCE0119
S11330D0845E9C4F21E42193E817F907E1F789EC1A
S11330E090E0CF5ADD4F99838883C155D240C55EA5
S11330F0DC4F1882CB51D340E12C00E023E040E0C8
S113310051EE60E070E080E00E9473000E942101B3
S11331100E9428018EE991E09F938F930E94921957
S1133120BE016F5F7F4F80E00E94E50C0F900F900F
S1133130811108C089EA91E09F938F930E949219AC
S11331400F900F904AE06AEB71E0CE01815D9D4FD4
S11331500E94060D811108C084EC91E09F938F9327
S11331600E9492190F900F9078948FEF87B98E0177
S11331700D5A1D4F0F2EF5EDCF2EF1E0DF2EF02D61
S11331807E0181EDE81A8DEFF80AA12CB12C409A4A
S11331901F930F93DF92CF92FF92EF920E946D12D2
S11331A0CF5ADD4F99838883C155D2404098419AC4
S11331B0B701C8010E944412CF5ADD4F9983888316
S11331C0C155D2404198429AF80101900020E9F794
S11331D03197AF01401B510B9E012F5A3D4FB8014F
S11331E0C7010E94CB0F4298439ACF5ADD4F1982F0
S11331F01882C155D2400F900F900F900F900F90EE
S11332000F902A2D3B2DF801E20FF31FB7018081A7
S11332100E941F12CF5ADD4F28813981C155D240F7
S11332202F5F3F4FCF5ADD4F39832883C155D2409A
S1133230283C310544F34398C7010E947911A7CF74
S11332408CE284B983E58CBD08958EBD0DB407FE70
S1133250FDCF8EB508950E94251908958FEF0E9421
S113326025190895A1E21A2EAA1BBB1BFD010DC04E
S1133270AA1FBB1FEE1FFF1FA217B307E407F50722
S113328020F0A21BB30BE40BF50B661F771F881FFE
S1133290991F1A9469F760957095809590959B0194
S11332A0AC01BD01CF010895EE0FFF1F0590F4910D
S11332B0E02D09940E948319A59F900DB49F900D51
S11332C0A49F800D911D1124089597FB10F8169466
S11332D000080F93083098F00850232F342F452FFF
S11332E0562F672F782F892F902DF4CF059497951B
S11332F087957795679557954795379527950A95B7
S1133300AAF70F910895A29FB001B39FC001A39F94
S1133310700D811D1124911DB29F700D811D11240A
S1133320911D0895A0E0B0E0E8E9F9E10C942E1CA9
S1133330FE01359661917191AF018091E9019091FF
S1133340EA010E94A619E2E00C944A1CACE0B0E049
S1133350ECEAF9E10C941E1C7C016B018A01FC016E
S113336017821682838181FFBDC1CE0101964C0173
S1133370F7019381F60193FD859193FF81916F018C
S1133380882309F4ABC1853239F493FD859193FF09
S113339081916F01853229F4B70190E00E948E1B60
S11333A0E7CF512C312C20E02032A0F48B3269F08D
S11333B030F4803259F0833269F420612CC08D32AC
S11333C039F0803339F4216026C02260246023C0A0
S11333D0286021C027FD27C030ED380F3A3078F43B
S11333E026FF06C0FAE05F9E300D1124532E13C051
S11333F08AE0389E300D1124332E20620CC08E32A8
S113340021F426FD6BC1206406C08C3611F42068BB
S113341002C0883641F4F60193FD859193FF8191B2
S11334206F018111C1CF982F9F7D9554933028F45B
S11334300C5F1F4FFFE3F9830DC0833631F08337F0
S113344071F0833509F05BC022C0F8018081898363
S11334500E5F1F4F44244394512C540115C038016E
S1133460F2E06F0E711CF801A080B18026FF03C04A
S1133470652D70E002C06FEF7FEFC5012C870E94BD
S1133480831B2C0183012C852F77222E17C0380132
S1133490F2E06F0E711CF801A080B18026FF03C01A
S11334A0652D70E002C06FEF7FEFC5012C870E948D
S11334B0781B2C012C852068222E830123FC1BC041
S11334C0832D90E048165906B0F4B70180E290E0ED
S11334D00E948E1B3A94F4CFF50127FC859127FEB8
S11334E081915F01B70190E00E948E1B31103A94E4
S11334F0F1E04F1A51084114510471F7E5C08436C4
S113350011F0893639F5F80127FF07C06081718110
S1133510828193810C5F1F4F08C06081718188276D
S113352077FD8095982F0E5F1F4F2F76B22E97FF51
S113353009C090958095709561957F4F8F4F9F4FEF
S11335402068B22E2AE030E0A4010E94C01BA82EFD
S1133550A81844C0853729F42F7EB22E2AE030E023
S113356025C0F22FF97FBF2E8F36C1F018F48835AD
S113357079F0B4C0803719F0883721F0AFC02F2F0D
S11335802061B22EB4FE0DC08B2D8460B82E09C00C
S113359024FF0AC09F2F9660B92E06C028E030E0B1
S11335A005C020E130E002C020E132E0F801B7FEBE
S11335B007C060817181828193810C5F1F4F06C0B7
S11335C06081718180E090E00E5F1F4FA4010E9432
S11335D0C01BA82EA818FB2DFF77BF2EB6FE0BC06C
S11335E02B2D2E7FA51450F4B4FE0AC0B2FC08C0E3
S11335F02B2D2E7E05C07A2C2B2D03C07A2C01C0D6
S1133600752C24FF0DC0FE01EA0DF11D808180336D
S113361011F4297E09C022FF06C07394739404C078
S1133620822F867809F0739423FD13C020FF06C00F
S11336305A2C731418F4530C5718732C731468F41D
S1133640B70180E290E02C870E948E1B73942C8536
S1133650F5CF731410F4371801C0312C24FF12C0B5
S1133660B70180E390E02C870E948E1B2C8522FFFB
S113367017C021FF03C088E590E002C088E790E00E
S1133680B7010CC0822F867859F021FD02C080E278
S113369001C08BE227FD8DE2B70190E00E948E1BF2
S11336A0A51438F4B70180E390E00E948E1B5A946D
S11336B0F7CFAA94F401EA0DF11D8081B70190E0DF
S11336C00E948E1BA110F5CF332009F451CEB7010F
S11336D080E290E00E948E1B3A94F6CFF701868137
S11336E0978102C08FEF9FEF2C96E2E10C943A1C75
S11336F0FC010590615070400110D8F780959095B9
S11337008E0F9F1F0895FC016150704001900110BD
S1133710D8F7809590958E0F9F1F08950F931F9350
S1133720CF93DF93182F092FEB018B8181FD03C009
S11337308FEF9FEF20C082FF10C04E815F812C81EC
S11337403D81421753077CF4E881F9819F012F5F83
S11337503F4F39832883108306C0E885F985812F7C
S11337600995892B29F72E813F812F5F3F4F3F8396
S11337702E83812F902FDF91CF911F910F91089568
S1133780FA01AA27283051F1203181F1E8946F938E
S11337906E7F6E5F7F4F8F4F9F4FAF4FB1E03ED034
S11337A0B4E03CD0670F781F891F9A1FA11D680FD2
S11337B0791F8A1F911DA11D6A0F711D811D911D05
S11337C0A11D20D009F468943F912AE0269F11247A
S11337D03019305D3193DEF6CF010895462F4770DE
S11337E0405D4193B3E00FD0C9F7F6CF462F4F7039
S11337F0405D4A3318F0495D31FD4052419302D097
S1133800A9F7EACFB4E0A69597958795779567953C
S1133810BA95C9F700976105710508959B01AC013C
S11338200A2E06945795479537952795BA95C9F763
S1133830620F731F841F951FA01D08952F923F923E
S11338404F925F926F927F928F929F92AF92BF92AC
S1133850CF92DF92EF92FF920F931F93CF93DF9358
S1133860CDB7DEB7CA1BDB0B0FB6F894DEBF0FBEB5
S1133870CDBF09942A88398848885F846E847D8402
S11338808C849B84AA84B984C884DF80EE80FD8004
S11338900C811B81AA81B981CE0FD11D0FB6F8947A
S11138A0DEBF0FBECDBFED010895F894FFCF3B
S11338AE00000003000000003E016A000000012237
S11338BE2A2B2C3A3B3C3D3E3F5B5D7C7F00808156
S11338CE82838485868788898A8B8C8D8E8F90914E
S11338DE9293949596979899AD9B8C9DAE9FA021AB
S11338EEA2A3A4A5A6A7A8A9AAABACADAEAFB0B12E
S11338FEB2B3B4B5B6B7B8B9BABBBCBDBEBFC0C11E
S113390EC2C3C4C5C6C7C8C9CACBCCCDCECFD0D10D
S113391ED2D3D4D5D6D7D8D9DADBDCDDDEDFC0C13D
S113392EC2C3C4C5C6C7C8C9CACBCCCDCECFD0D1ED
S113393ED2D3D4D5D6F7D8D9DADBDCDDDE9F555316
S113394E415254204F4B0D0D0043617274616F2030
S113395E6D6F6E7461646F210D006D617269612EFD
S113396E627275004172717569766F206372696156
S10B397E646F210D00257300A4
S9030000FC
