S00B000050574D2E7372656325
S11300000C9434000C943E000C943E000C943E007E
S11300100C943E000C943E000C943E000C943E0064
S11300200C943E000C943E000C943E000C943E0054
S11300300C943E000C943E000C943E000C943E0044
S11300400C943E000C943E000C943E000C943E0034
S11300500C943E000C943E000C943E000C943E0024
S11300600C943E000C943E0011241FBECFEFD8E048
S1130070DEBFCDBF0E9440000C9477000C940000BA
S113008086E8809380008BE18093810087E893E188
S11300909093870080938600219AE8E8F0E046EE8A
S11300A050E024EF31E087E791E0518340836FEF24
S11300B07FE0A7E261507040A040E1F700C000007B
S11300C0318320836FEF7FE0A7E261507040A0404E
S11300D0E1F700C00000918380836FEF7FE0A7E227
S11300E061507040A040E1F700C00000DECFF894FA
S10500F0FFCF3C
S9030000FC
