S00E00006D6163726F732E7372656391
S11300000C943E000C9448000C9448000C94480056
S11300100C9448000C9448000C9448000C9448003C
S11300200C9448000C9448000C9448000C9448002C
S11300300C9448000C9448000C9448000C9448001C
S11300400C9448000C9448000C9448000C9448000C
S11300500C9448000C9448000C9448000C944800FC
S11300600C9448000C944800650067005400560046
S113007058005A005C005E006000620011241FBE3C
S1130080CFEFD8E0DEBFCDBF0E9469000C9485009D
S11300900C94000090E0FC01F097EA30F105A0F424
S11300A0EC5CFF4F0C947F0084EA089580EB089584
S11300B089E9089582E9089583E8089588EF089509
S11300C080E8089588E90895089580EC089589EFFB
S11300D008958FEF8AB91BB85A9AC0E38C2F0E94F7
S11300E04A008BB92FEF89E698E121508040904077
S11300F0E1F700C00000CF5FCA3381F7EECFEE0F07
S1110100FF1F0590F491E02D0994F894FFCFB1
S9030000FC
