:020000020000FC
:100000000C94A2000C94A2000C94A2000C94A200E8
:100010000C94A2000C94A2000C94A2000C94A200D8
:100020000C94A2000C94A2000C94A2000C94A200C8
:100030000C94A2000C94A2000C94A2000C94A200B8
:100040000C94A2000C94A2000C94A2000C94A200A8
:100050000C94A2000C94A2000C94A2000C94A20098
:100060000C94A2000C94A2000FEF0AB93AE0599840
:100070005A983A953F93303011F00C9439000E9411
:1000800048006F910E948F00693074F70C943F0014
:10009000FEB7EDB75381503021F1513029F1523084
:1000A00031F1533039F1543041F1553049F1563086
:1000B00051F1573059F1583061F1593069F108E088
:1000C0000A9539F0469550F05898599A59980C94D9
:1000D00060005A9A5A98FEBFEDBF0895589A0C9442
:1000E000650040EC0C945F0049EF0C945F0044EA1B
:1000F0000C945F0040EB0C945F0049E90C945F00A6
:1001000042E90C945F0043E80C945F0048EF0C94C4
:100110005F0040E80C945F0048E90C945F002F9367
:100120003F934F9329E03EE14DED4A95F1F73A9523
:10013000E1F72A95D1F74F913F912F9100000000F0
:10014000000008953FEF3DBF38E03EBF0C943400FF
:00000001FF
