:020000020000FC
:100000000C947B000C947B000C947B000C947B0084
:100010000C947B000C947B000C947B000C947B0074
:100020000C947B000C947B000C947B000C947B0064
:100030000C947B000C947B000C947B000C947B0054
:100040000C947B000C947B000C947B000C947B0044
:100050000C947B000C947B000C947B000C947B0034
:100060000C947B000C947B000FEF0AB92098289A1F
:1000700011E01BB9189B0E945E00022F017049F429
:100080000E944B00110F103009F411E01BB90C94C1
:100090003A000C943A002F933F934F9329E03EE1AE
:1000A0004DED4A95F1F73A95E1F72A95D1F74F9141
:1000B0003F912F9100000000000008950E94680009
:1000C000189B0C94600001E020270E9468000895AE
:1000D0002F933F934F9321E030EA4BE84A95F1F795
:1000E0003A95E1F72A95D1F74F913F912F91000072
:1000F0000000000008953FEF3DBF38E03EBF0C9484
:020100003400C9
:00000001FF
