S01A000055736172744275666665724578616D706C652E73726563D5
S11300000C943B000C9458000C9458000C94580029
S11300100C9458000C9458000C9458000C945800FC
S11300200C9458000C9458000C9458000C945800EC
S11300300C9458000C9458000C9458000C945800DC
S11300400C9458000C9458000C94B2020C94580070
S11300500C9458000C9458000C9458000C945800BC
S11300600C9458000C945800B900BB00BD00BF00AC
S1130070C100C300C50011241FBECFEFD8E0DEBF0E
S1130080CDBF11E0A0E0B1E0E0E4F6E002C00590ED
S11300900D92A030B107D9F721E0A0E0B1E001C092
S11300A01D92A833B207E1F70E941F020C941E03AD
S11300B00C94000020918000909181006F3F11F01A
S11300C0987F962B8F3F69F083FF02C0906101C037
S11300D09F7E82FF02C0986001C0977F83702C7F4F
S11300E0282B209380009093810080E00895B19A9A
S11300F080E008952FB7F894909389008093880046
S11301002FBF80E008952FB7F89490938B008093CD
S11301108A002FBF80E008956F3F51F0ECE7F0E0D4
S1130120908120E4629FB00111249F73692B608346
S11301304F3F31F0EAE7F0E09081987F492B40830C
S11301408F3F69F1811107C0EAE7F0E080818F7D7C
S1130150808380E0089590917B00292F287F90E090
S1130160FC013297E730F105E0F4EC5CFF4F0C94AE
S1130170FA0221600BC0226009C0236007C024601A
S113018005C0256003C0266001C0276020937B0062
S1130190EAE7F0E080818062808380E0089580E077
S11301A0089587E00895EAE7F0E08081806880831D
S11301B080E00895EAE7F0E080818061808380E058
S11301C00895EAE7F0E080818860808380E0089504
S11301D08F929F92AF92BF92CF92DF92EF92FF9253
S11301E00F934A015B019091C0009091C1009091DE
S11301F0C2009FEFE91621F091E09E1508F47DC03E
S11302000F3F19F0033008F07AC02F3F19F0253062
S113021008F077C08F3F89F48091C200829586955B
S11302208695837021F0833009F46FC005C08091F6
S1130230C0008695817001C080E09FEF8916990601
S1130240A906B90609F45FC08130B9F018F084300A
S113025039F139C060E472E48FE090E0A5019401C3
S11302600E94D802DA01C9010197A109B1094C0120
S11302705D01C12CD12C76012EC060E874E88EE1BA
S113028090E0A50194010E94D802DA01C901019706
S1130290A109B1094C015D01C12CD12C76011BC00F
S11302A060E072E18AE790E0A50194010E94D8021F
S11302B0DA01C9010197A109B1094C015D01C12C01
S11302C0D12C760108C0812C912CA12CB12CC12CED
S11302D0D12CE12CF12C282D392D4A2D5B2D6C2DA0
S11302E07D2D8E2D9F2D08E00E9402032F702093F8
S11302F0C5008092C40080E00FC087E00DC085E097
S11303000BC085E009C080E007C08FEF881698060F
S1130310A806B80629F680E00F91FF90EF90DF90D1
S1130320CF90BF90AF909F908F900895E1ECF0E054
S113033080818061808380E00895E1ECF0E0808139
S11303408860808380E00895E1ECF0E0808180683B
S1130350808380E008958091C00085FB882780F920
S11303600895CF93C82F0E94AB018823E1F3C09373
S1130370C60080E0CF910895E0ECF0E0808188230E
S1130380ECF78091C0008091C6000895FF920F930E
S11303901F93CF93DF93F82EC0913201D0E0BE01BA
S11303A06F5F7F4F882777FD8095982F22E330E099
S11303B040E050E00E94D8020091340110E020E0B7
S11303C030E0601771078207930751F0C050DF4F88
S11303D0F88260933201809133018F5F80933301FF
S11303E0DF91CF911F910F91FF900895CF93DF93E9
S11303F02091340130E0F901E050FF4FD081C091E9
S11304003301CC2391F0B9016F5F7F4F882777FDCB
S11304108095982F22E330E040E050E00E94D8021B
S113042060933401C150C09333018D2FDF91CF917C
S1130430089581E090913301911180E00895CF9364
S1130440DF9300D000D01F92CDB7DEB710923501F4
S1130450289AE12C00E023E040E855E260E070E0F7
S113046080E00E94E8000E9496010E949D010E9483
S1130470A40189E196E00E947A0089E196E00E9455
S1130480830065E084E00E945A0047E061E086E072
S11304900E948C000E94D3000E94DA000E94E100B6
S11304A00E9477007894CC24CA94912C10E0D12C2B
S11304B0412CCE0101967C01282E3F2C66246A949F
S11304C06894772471F8A42C882483940F2EF3E085
S11304D05F2EF02D01C0142D1899FECF2AC00E9462
S11304E0F6011130D9F028F0123041F0133089F0C0
S11304F01CC0182D8E37C9F01A2D17C091E09D0D20
S1130500F701ED0DF11D8083C81A991561F0D92EFC
S11305100CC0182DC8121A2D119507C0982EC62C80
S1130520172DDA2C02C0D92E152D0E94F6010E9437
S1130530B1010E941902811104C01F3F81F6B92C38
S113054003C01F3F49F6B92CBB2031F2022D132DF5
S1130550F80181918F010E94B101802F8E198B15B2
S1130560B8F3B9CF1F920F920FB60F9211242F93A5
S11305703F934F935F936F937F938F939F93AF9327
S1130580BF93EF93FF930E94BC010E94C601FF91A9
S1130590EF91BF91AF919F918F917F916F915F91F7
S11305A04F913F912F910F900FBE0F901F90189570
S11305B0A1E21A2EAA1BBB1BFD010DC0AA1FBB1F63
S11305C0EE1FFF1FA217B307E407F50720F0A21BD5
S11305D0B30BE40BF50B661F771F881F991F1A9442
S11305E069F760957095809590959B01AC01BD016C
S11305F0CF010895EE0FFF1F0590F491E02D0994AB
S113060097FB10F8169400080F93083098F00850E0
S1130610232F342F452F562F672F782F892F902D76
S1130620F4CF059497958795779567955795479552
S1130630379527950A95AAF70F910895F894FFCF57
S9030000FC
