S00E00006D6163726F732E7372656391
S11300000C9434000C943E000C943E000C943E007E
S11300100C943E000C943E000C943E000C943E0064
S11300200C943E000C943E000C943E000C943E0054
S11300300C943E000C943E000C943E000C943E0044
S11300400C943E000C943E000C943E000C943E0034
S11300500C943E000C943E000C943E000C943E0024
S11300600C943E000C943E0011241FBECFEFD8E048
S1130070DEBFCDBF0E9440000C9457000C940000DA
S11300808FEF8AB91BB82FEF89E698E121508040A1
S11300909040E1F700C000005A982FEF89E698E1FC
S11300A0215080409040E1F700C00000ECCFF8946C
S10500B0FFCF7C
S9030000FC
